:100000000201F5C000788500D8FDD00022C000C0F4
:100010000179287868D8FED9FADAF6D001D0002222
:100020007A6479C87868D8FED9FADAF622D29412BE
:100030000003C29422D29302003FC29302003FA267
:10004000E79283A2E69282A2E59281A2E4928012D4
:10005000002DA2E39283A2E29282A2E19281A2E029
:10006000928012002D22C2947A2812000D7433124D
:10007000003A743312003A743212003A74281200B3
:100080003A740C12003A740112003A7A0212000D0E
:1000900022744012003A741B1200357403120035AA
:1000A0007403120035740F120035741E120035747B
:1000B0001C12003574181200357410120035744883
:1000C00012003A74011200357403120035740712DD
:1000D0000035740E120035741E120035741F1200A4
:1000E00035741F120035741F120035745012003A17
:1000F000741F120035741F120035741F12003574FE
:100100000E120035740E120035741F120035741F64
:10011000120035741F120035745812003A74101210
:1001200000357418120035741C120035740E12005C
:1001300035740F120035741F120035741F1200350C
:10014000741F120035746012003A741B120035746B
:1001500018120035741C120035741E120035740F0D
:100160001200357407120035740312003574011241
:100170000035746812003A741F12003574001200C2
:100180003574001200357400120035740012003509
:10019000741F120035741F120035741F120035745D
:1001A0007012003A741F120035741F120035741E4D
:1001B000120035740D120035740D120035741E12C4
:1001C0000035741F120035741F12003574101200B0
:1001D000357418120035741C120035741E12003567
:1001E000741F120035741F120035741F120035740D
:1001F0001F1200352275817F75B10075B20075B38D
:100200000075B400120066120091748012003A74F6
:100210000112003574C012003A740412003574C122
:1002200012003A740512003574C212003A740012BA
:100230000035748D12003A7401120035748E12006C
:100240003A7402120035748F12003A7403120035AA
:1002500074CD12003A740412003574CE12003A7450
:100260000512003574CF12003A74001200351202E4
:10027000D1748312003A90033012028C74C41200BD
:100280003A90033B12028C1202A680E2C000C00129
:100290007800E893600B1200357A6412000DA38099
:1002A000F1D001D00022C000748312003A780A74A1
:1002B000201200357A6412000DD8F474C312003A8B
:1002C000780A74201200357A6412000DD8F4D00038
:1002D00022748112003A7406120035748212003AB8
:1002E0007407120035120020748112003A74021251
:1002F0000035748212003A74031200351200207423
:100300008E12003A7406120035748F12003A740788
:10031000120035120020748E12003A740212003559
:10032000748F12003A74031200351200202280FEEE
:100330004A65726F6D65576F6E67003839393137AE
:040340003537390014
:00000001FF
