:100000000200037581401200AAE582600302006FBE
:10001000780079007A007B007C007D00EC4D601C4C
:1000200088828983E493A3A882A9838A828B83F040
:10003000A3AA82AB831CBCFFE31D80E07582007520
:1000400083007C007D00EC4D600AE4F0A31CBCFF43
:10005000F51D80F27582007583007C007D00EC4DFB
:10006000600AE4F0A31CBCFFF51D80F21200A91287
:10007000031780FE4C434420342D6269742074655C
:1000800073743A0048656C6C6F2C20576F726C6407
:10009000210042617263656C6F6E61000A003C4E24
:1000A0004F20464C4F41543E002275A7007597DE05
:1000B0007597AD75A71075C12075A70075A9007556
:1000C000A900E5A930E7FB75A90375A903E5A930E7
:1000D000E7FB43A41075E10175E20075E3407598F4
:1000E00010858E8E758DE6858D8B53890F43892003
:1000F000D28ED29975820022AA82438E407592B820
:100100007593FF8592948593957591047B00C3EB5D
:100110009A500BE59130E7FB53917F0B80F075917E
:100120000022AA82AB837C007D00C3EC9AED9B5039
:100130002B7E00BE0400501D7582FAC002C003C0B1
:1001400004C005C0061200F8D006D005D004D003C4
:10015000D0020E80DE0CBC00D10D80CE22D2A07564
:1001600082281200F8C2A022AA828AE0A2E7929016
:10017000A2E69291A2E59292A2E49293C0021201A9
:100180005D7582281200F8D0028AE0A2E39290A264
:10019000E29291A2E19292A2E0929302015DAA8280
:1001A000D2978A82120168900002020122AA82C2BA
:1001B000978A82120168900005020122C2A0900075
:1001C000141201227582331201AD7582331201AD12
:1001D0007582321201AD7582281201AD75820C1242
:1001E00001AD7582011201AD900014020122AA82B4
:1001F000AB83ACF07402B522047DC080027D808D9B
:1002000082C002C003C0041201AD90000512012299
:10021000D004D003D0027D007E00ED2AFFEE3BF833
:100220008C018F82888389F012037FFF60208F8288
:10023000C002C003C004C005C00612019ED006D093
:1002400005D004D003D0020DBD00CF0E80CC30000D
:10025000248D028E03C3EA9410EB648094805015C1
:10026000758220C002C00312019ED003D0020ABAD8
:1002700000E30B80E02285822585832685F027E434
:10028000F528F529E52324FFFFE52434FFF879005C
:100290007A00C3E99FEA648088F063F08095F050AB
:1002A00059C002C007C000C0011203D1AB82D00107
:1002B000D000D007D002BB0A028003BB0D1DE52889
:1002C0002525FCE5293526FDAE278C828D838EF011
:1002D000E41203E485288285298322E92525FCEAA6
:1002E0003526FDAE278C828D838EF0EB1203E40958
:1002F000B900010A89288A298098E5282525FAE588
:10030000293526FBAC278A828B838CF0E41203E428
:10031000852382852483221201BC752201D200909C
:10032000007475F0801201EE752202D200900084F4
:1003300075F0801201EE7492C0E07400C0E0748029
:10034000C0E01203B0158115811581752311E4F504
:100350002490002A75F040120276749CC0E074006C
:10036000C0E07480C0E01203B0158115811581755D
:100370002202D20090002A75F0401201EE80B720D0
:10038000F71430F6148883A88220F507E6A8837551
:10039000830022E280F7E49322E022020A1D858294
:1003A0001885831985F01A85091B90039B02048622
:1003B000C008858108E50824FBF51BE50824FBF847
:1003C000861808861908861A90039B120486D0089E
:1003D0002210980280FBAA998A82C002120A1DD0BC
:1003E000028A822220F71030F6118883A88220F535
:1003F00007F6A88375830022F280F7F022AA8274A0
:100400000EC0E07404C0E0C00AC00B8A822205114D
:10041000E4B51102051222AA8274302AFA24C650C9
:100420000A74072AFA3001034302208A820203FD7C
:10043000E582FAC4540FF582C002120417D0027488
:100440000F5AF582020417AA0CAB0DAC0EAD0FAE1D
:1004500010751720EE2EFEED235401FF4206EA2A06
:10046000FAEB33FBEC33FCED33FDC3EE95134008A0
:10047000EEC39513FE430201D517D98A0C8B0D8C60
:100480000E8D0F8E102285820A85830BE4F511F5FF
:1004900012AA18AB19AC1A8A828B838CF012037FD4
:1004A000FD74012AF518E43BF5198C1AEDFA700376
:1004B000020A16BA25028003020A0EC205C206C24B
:1004C00007C208C209C20AC20BC20CC202C203C2DE
:1004D000047513007514007515FFAB18AC19AD1A2F
:1004E0008B828C838DF012037FFAA3AB82AC838B5B
:1004F000188C198D1ABA25078A821203FD80928AF8
:1005000006BE3000402E8A06EE24C6402774FFB592
:100510001513E51475F00AA4FEEA24D02EF5147024
:10052000BFD20680BBE51575F00AA4FEEA24D02EE2
:10053000F51580ACBA2E0A74FFB515A475150080A8
:100540009F8A06BE6100400E8A06EE24854007534E
:1005500002DFD2018002C201BA20028075BA2303F1
:100560000205E1BA2A030205E6BA2B02805FBA2D22
:10057000028055BA4202805FBA430302062BBA4496
:1005800003020766BA4503020780BA460302077CE6
:10059000BA4703020784BA4903020766BA4C0280CD
:1005A0003BBA4E03020788BA4F0302076DBA5003E5
:1005B0000206FFBA530302064FBA5503020772BA86
:1005C00058030207770207B2D2050204E0D20702FD
:1005D00004E0D2080204E0D20A0204E0D20B0204D2
:1005E000E0D20C0204E074FFB51520300A0BE51BC5
:1005F00014F8881B86140204E0E51B24FEF8881B0F
:100600008606088607188E140204E0300A0BE51BE4
:1006100014F8881B86150204E0E51B24FEF8881BED
:100620008606088607188E150204E0300A0AE51BC4
:1006300014F8881B8602800FE51B24FEF8881B86B1
:1006400003088604188B028A821203FD0207B7E5AD
:100650001B24FDF8881B86030886040886051818E5
:100660008B0C8C0D8D0E8B828C838DF0120A32AB2D
:1006700082AC838B1674FFB5150385161520051DF6
:10068000C3E51695145016E514C39516F514AB146E
:100690001514EB60087582201203FD80F1850C8231
:1006A000850D83850EF012037FFBFA6029AB1515CB
:1006B00015C3E464808BF063F08095F050188A8253
:1006C0001203FDAB0CAC0DAD0E0BBB00010C8B0C83
:1006D0008C0D8D0E80C72005030207B7C3E5169564
:1006E0001440030207B7E514C39516F514AB1415AF
:1006F00014EB70030207B77582201203FD80EEE54C
:100700001B24FDF8881B8603088604088605181834
:100710008B0C8C0D8D0EE50EFB30E7047A438013B5
:10072000EB546060047A50800AEB30E6047A49802A
:10073000027A588A82C0021203FD75823A1203FDC2
:100740007582301203FD7582781203FDD002BA491A
:1007500002800BBA50028006850D82120430850C8F
:10076000821204308051D20975130A804A75130829
:10077000804575130A8040751310803BD202803784
:10078000D2038033D204802FE51B24FDF8881B861A
:100790000308860408860518188B0C8C0D8D0E8BAB
:1007A000828C838DF0E5111203E4A3E5121203E4B9
:1007B00080058A821203FD20020620030330045ABA
:1007C000E51B24FCF8881B860308860408860508B8
:1007D00086061818188B0C8C0D8D0E8E0F750C9EBE
:1007E000750D00750E80850C1C850D1D850E1E7403
:1007F00001251CFEE4351DFFAB1E8E0C8F0D8B0EEC
:10080000851C82851D83851EF012037FFBFA700311
:100810000204918A821203FD80CCE5137003020466
:10082000917B40300A2BE51B14F8881BE6FC3395BE
:10083000E0FDFEFF8C0C8D0D8E0E8F0F20095EAC3F
:100840000C7D007E007F008C0C8D0D8E0E8F0F8036
:100850004C300B1FE51B24FCF8881B86040886051A
:100860000886060886071818188C0C8D0D8E0E8FBA
:100870000F802AE51B24FEF8881B860408860518CD
:10088000ED3395E0FEFF8C0C8D0D8E0E8F0F200941
:100890000CAC0CAD0D7E007F008E0E8F0F300C4324
:1008A000E50C450D450E450F60397408B5130C7500
:1008B0008230C0031203FDD00380287410B51323C7
:1008C000758230C0031203FDD00330010C758278AD
:1008D000C0031203FDD003800A758258C0031203BF
:1008E000FDD003300925AC0CAD0DAE0EE50FFF3089
:1008F000E717C3E49CFCE49DFDE49EFEE49FFF8CAF
:100900000C8D0D8E0E8F0F8002C209751600D20D50
:100910008B00751000C000120447D000200D0DE5BB
:1009200010C4FCE6FD4CF61888038002A6100516DC
:10093000B20DE50C450D450E450F70D68803E51444
:10094000700375140120061A200517E51604FCC370
:100950009514500E758220C0031203FDD0031514A8
:1009600080E930090E75822DC0031203FDD00315F6
:10097000148024E516602030070E75822BC0031208
:1009800003FDD0031514800F30080C758220C003BE
:100990001203FDD003151420051EAC141514C3E575
:1009A000169C50273006047C3080027C208C82C04C
:1009B000031203FDD00380E2C3E51695145009E548
:1009C00014C39516F51480037514008B00AB16152F
:1009D00016EB6022B20D200D0A08E6C4540FFB8B03
:1009E0001080078603740F5BF510851082C000121B
:1009F0000417D00080D7200503020491AB1415140E
:100A0000EB70030204917582201203FD80EE8A824E
:100A10001203FD02049185118285128322AA82BAF3
:100A20000A0810990280FB75990D10990280FB8AC3
:100A30009922AA82AB83ACF07D007E008A828B83F0
:100A40008CF012037FFFA3AA82AB83EF60070DBD7A
:100A500000EA0E80E78D828E8322000000000000F5
:00000001FF
