:10000000020003758128120138E582600302006F47
:10001000780079007A007B007C007D00EC4D601C4C
:1000200088828983E493A3A882A9838A828B83F040
:10003000A3AA82AB831CBCFFE31D80E07582007520
:1000400083007C007D00EC4D600AE4F0A31CBCFF43
:10005000F51D80F27582007583007C007D00EC4DFB
:10006000600AE4F0A31CBCFFF51D80F212013712F8
:1000700001F880FE1B5B324A0045464D382046722F
:10008000657175656E6379206D6561737572656DF7
:10009000656E74207573696E672054696D65722F83
:1000A000436F756E74657220302E0A46696C653A2E
:1000B0002025730A436F6D70696C65643A2025735F
:1000C0002C2025730A0A00433A5C55736572735CF1
:1000D000776F6E67685C4F6E654472697665202D38
:1000E000205542435C5542435C5965617220325C45
:1000F000454C4543203239315C4C6162345C467278
:10010000657145464D382E630046656220323020C9
:10011000323032350031353A35383A3136000D66F5
:100120003D256C75487A001B5B304B003C4E4F20E0
:10013000464C4F41543E002275A7007597DE7597D7
:10014000AD43FF8075EF0275A71075C12075A7003C
:1001500075A90075A900E5A930E7FB75A90375A984
:1001600003E5A930E7FB43A41075E10175E21075C2
:10017000E340759810858E8E758DE6858D8B53893D
:100180000F438920D28ED29975820022AA82438E93
:10019000407592B87593FF859294859395759104F7
:1001A0007B00C3EB9A5012E59130E7FB53917F102F
:1001B0008D02800205090B80E975910022AA82ABAD
:1001C00083BA0004BB0001227582F9C002C0031289
:1001D000018C7582F912018C7582F912018C75827D
:1001E000FA12018CD003D0021ABAFF011B80D2533D
:1001F00089F0438905C28C221201EF9001F41201AB
:10020000BD7474C0E07400C0E07480C0E01202E904
:100210001581158115817415C0E07401C0E07480EA
:10022000C0E07409C0E07401C0E07480C0E074C72D
:10023000C0E07400C0E07480C0E07479C0E0740075
:10024000C0E07480C0E01202E9E58124F4F5817514
:100250008A00758C00750900C28DD28C9003E8125B
:1002600001BDC28CAA097B008B058A047B007A0041
:10027000AE8C7F00780088018F008E077E00EE2A0A
:10028000FAEF3BFBE83CFCE93DFDAE8AE4FF339529
:10029000E0F8F9EE2AFAEF3BFBE83CFCE93DFDC053
:1002A00002C003C004C005741EC0E07401C0E07445
:1002B00080C0E01202E9E58124F9F5817427C0E0ED
:1002C0007401C0E07480C0E01202E9158115811547
:1002D0008102024F02092A85821985831A85F01B43
:1002E000850A1C9002D4020393C008858108E508A2
:1002F00024FBF51CE50824FBF8861908861A0886F5
:100300001B9002D4120393D00822AA82741BC0E06F
:100310007403C0E0C00BC00C8A82220512E4B5123F
:1003200002051322AA8274302AFA24C6500A7407DE
:100330002AFA3000034302208A8202030AE582FA85
:10034000C4540FF582C002120324D002740F5AF570
:1003500082020324AA0DAB0EAC0FAD10AE117518BE
:1003600020EE2EFEED235401FF4206EA2AFAEB337B
:10037000FBEC33FCED33FDC3EE95144008EEC39562
:1003800014FE430201D518D98A0D8B0E8C0F8D10E7
:100390008E112285820B85830CE4F512F513AA19C0
:1003A000AB1AAC1B8A828B838CF012093FFD74015F
:1003B0002AF519E43BF51A8C1BEDFA7003020923A8
:1003C000BA2502800302091BC204C205C206C20785
:1003D000C208C209C20AC20BC201C202C20375141A
:1003E000007515007516FFAB19AC1AAD1B8B828C0E
:1003F000838DF012093FFAA3AB82AC838B198C1A60
:100400008D1BBA25078A8212030A80928A06BE30A3
:1004100000402E8A06EE24C6402774FFB51613E569
:100420001575F00AA4FEEA24D02EF51570BFD2058A
:1004300080BBE51675F00AA4FEEA24D02EF51680DE
:10044000ACBA2E0A74FFB516A4751600809F8A06F2
:10045000BE6100400E8A06EE248540075302DFD2BB
:10046000008002C200BA20028075BA23030204EEA3
:10047000BA2A030204F3BA2B02805FBA2D02805518
:10048000BA4202805FBA4303020538BA4403020647
:1004900073BA450302068DBA4603020689BA4703BA
:1004A000020691BA4903020673BA4C02803BBA4E67
:1004B00003020695BA4F0302067ABA500302060CED
:1004C000BA530302055CBA550302067FBA58030209
:1004D00006840206BFD2040203EDD2060203EDD267
:1004E000070203EDD2090203EDD20A0203EDD20B9B
:1004F0000203ED74FFB5162030090BE51C14F888D3
:100500001C86150203EDE51C24FEF8881C860608EF
:100510008607188E150203ED30090BE51C14F888C8
:100520001C86160203EDE51C24FEF8881C860608CE
:100530008607188E160203ED30090AE51C14F888A8
:100540001C8602800FE51C24FEF8881C86030886A2
:1005500004188B028A8212030A0206C4E51C24FDD9
:10056000F8881C860308860408860518188B0D8CED
:100570000E8D0F8B828C838DF0120974AB82AC834D
:100580008B1774FFB5160385171620041DC3E517D6
:1005900095155016E515C39517F515AB151515EB03
:1005A000600875822012030A80F1850D82850E8312
:1005B000850FF012093FFBFA6029AB161516C3E44C
:1005C00064808BF063F08095F050188A8212030AE1
:1005D000AB0DAC0EAD0F0BBB00010C8B0D8C0E8D5B
:1005E0000F80C72004030206C4C3E5179515400316
:1005F0000206C4E515C39517F515AB151515EB7077
:10060000030206C475822012030A80EEE51C24FD55
:10061000F8881C860308860408860518188B0D8C3C
:100620000E8D0FE50FFB30E7047A438013EB546027
:1006300060047A50800AEB30E6047A4980027A58E6
:100640008A82C00212030A75823A12030A75823046
:1006500012030A75827812030AD002BA4902800B8B
:10066000BA50028006850E8212033D850D82120368
:100670003D8051D20875140A804A7514088045756A
:10068000140A8040751410803BD2018037D202805A
:1006900033D203802FE51C24FDF8881C86030886CE
:1006A0000408860518188B0D8C0E8D0F8B828C8399
:1006B0008DF0E51212095BA3E51312095B80058A30
:1006C0008212030A20010620020330035AE51C248B
:1006D000FCF8881C86030886040886050886061828
:1006E00018188B0D8C0E8D0F8E10750D2C750E013C
:1006F000750F80850D1D850E1E850F1F7401251D2C
:10070000FEE4351EFFAB1F8E0D8F0E8B0F851D82F5
:10071000851E83851FF012093FFBFA700302039EBA
:100720008A8212030A80CCE514700302039E7B28A0
:1007300030092BE51C14F8881CE6FC3395E0FDFE1F
:10074000FF8C0D8D0E8E0F8F1020085EAC0D7D007E
:100750007E007F008C0D8D0E8E0F8F10804C300A26
:100760001FE51C24FCF8881C8604088605088606FC
:100770000886071818188C0D8D0E8E0F8F10802A82
:10078000E51C24FEF8881C860408860518ED3395C0
:10079000E0FEFF8C0D8D0E8E0F8F1020080CAC0D1F
:1007A000AD0E7E007F008E0F8F10300B43E50D45A0
:1007B0000E450F451060397408B5140C758230C0B1
:1007C0000312030AD00380287410B51423758230F5
:1007D000C00312030AD00330000C758278C00312E4
:1007E000030AD003800A758258C00312030AD0039B
:1007F000300825AC0DAD0EAE0FE510FF30E717C386
:10080000E49CFCE49DFDE49EFEE49FFF8C0D8D0EB8
:100810008E0F8F108002C208751700D20C8B0075E6
:100820001100C000120354D000200C0DE511C4FCCF
:10083000E6FD4CF61888038002A6110517B20CE5F8
:100840000D450E450F451070D68803E515700375EC
:10085000150120051A200417E51704FCC39515504F
:100860000E758220C00312030AD003151580E930EB
:10087000080E75822DC00312030AD00315158024BB
:10088000E517602030060E75822BC00312030AD0D4
:10089000031515800F30070C758220C00312030A60
:1008A000D003151520041EAC151515C3E5179C5073
:1008B000273005047C3080027C208C82C003120328
:1008C0000AD00380E2C3E51795155009E515C395D5
:1008D00017F51580037515008B00AB171517EB6026
:1008E00022B20C200C0A08E6C4540FFB8B118007BF
:1008F0008603740F5BF511851182C000120324D0AA
:100900000080D720040302039EAB151515EB70037E
:1009100002039E75822012030A80EE8A8212030A65
:1009200002039E85128285138322AA82BA0A0810C6
:10093000990280FB75990D10990280FB8A992220FB
:10094000F71430F6148883A88220F507E6A883758B
:10095000830022E280F7E49322E02220F71030F6B1
:10096000118883A88220F507F6A88375830022F2F8
:1009700080F7F022AA82AB83ACF07D007E008A82F1
:100980008B838CF012093FFFA3AA82AB83EF600731
:100990000DBD00EA0E80E78D828E832200000000EC
:00000001FF
