:100000000200037581701201F1E582600302006F46
:10001000780079007A007B007C007D00EC4D601C4C
:1000200088828983E493A3A882A9838A828B83F040
:10003000A3AA82AB831CBCFFE31D80E07582007520
:1000400083007C007D00EC4D600AE4F0A31CBCFF43
:10005000F51D80F27582007583007C007D00EC4DFB
:10006000600AE4F0A31CBCFFF51D80F21201E4124B
:100070000C8680FE252E336620754600252E3366BD
:10008000206E46005254204D657465722075463CC2
:100090002D3E6E460043617061636974616E6365F5
:1000A000003C202020204D657465722020202020F7
:1000B0003E004163637572617465204D65746572BD
:1000C000002020436C69636B20537461727420209C
:1000D0003E004D6561737572696E67004D656173B1
:1000E0007572696E672E004D6561737572696E6712
:1000F0002E2E004D6561737572696E672E2E2E006F
:1001000043617061636974616E6365204F4F520093
:10011000544F4F20534D414C4C00252E35662075D1
:100120004600252E3566206E460043617061636986
:1001300074616E63653A001B5B324A0045464D3878
:1001400020506572696F64206D6561737572656DAD
:10015000656E742061742070696E2050302E3120DD
:100160007573696E672054696D657220302E0A467A
:10017000696C653A2025730A436F6D70696C65641C
:100180003A2025732C2025730A0A00433A5C5573E4
:100190006572735C776F6E67685C4F6E65447269F9
:1001A0007665202D205542435C5542435C5965617C
:1001B0007220325C454C4543203239315C4C6162DF
:1001C000345C506572696F6445464D382E63004655
:1001D000656220323520323032350031383A3034E1
:1001E0003A303500752C00752D00752E00752F00E6
:1001F0002275A7007597DE7597AD43FF8075EF02F6
:1002000075A71075C12075A70075A90075A900E52F
:10021000A930E7FB75A90375A903E5A930E7FB43FE
:10022000A41075E10175E20075E340759810858EA4
:100230008E758DE6858D8B53890F438920D28ED2A2
:100240009975820022AA82438E407592B87593FFF9
:100250008592948593957591047B00C3EB9A500B1E
:10026000E59130E7FB53917F0B80F075910022AA56
:1002700082AB83BA0004BB0001227582F9C002C0C0
:10028000031202457582F91202457582F912024580
:100290007582FA120245D003D0021ABAFF011B8000
:1002A000D25389F0438901C28C22D2A075822812D0
:1002B0000245C2A022AA828AE0A2E79290A2E69218
:1002C00091A2E59292A2E49293C0021202AA7582D0
:1002D00028120245D0028AE0A2E39290A2E2929113
:1002E000A2E19292A2E092930202AAAA82D2978AF3
:1002F000821202B590000202026FAA82C2978A821D
:100300001202B590000502026FC2A0900014120202
:100310006F7582331202FA7582331202FA758232D5
:100320001202FA7582281202FA75820C1202FA750C
:1003300082011202FA90001402026FAA82AB83AC0F
:10034000F07401B5230774802524FD800574C02551
:1003500024FD8D82C002C003C0041202FA90000581
:1003600012026FD004D003D0027D007E00ED2AFF80
:10037000EE3BF88C018F82888389F0120E28FF6093
:10038000208F82C002C003C004C005C0061202EB69
:10039000D006D005D004D003D0020DBD00CF0E8012
:1003A000CC3000248D028E03C3EA9410EB64809459
:1003B000805015758220C002C0031202EBD003D01A
:1003C000020ABA00E30B80E0228582278583288514
:1003D000F029E4F52AF52BE52524FFFFE52634FF77
:1003E000F879007A00C3E99FEA648088F063F080BE
:1003F00095F05059C002C007C000C001120FE1AB18
:1004000082D001D000D007D002BB0A028003BB0D0E
:100410001DE52A2527FCE52B3528FDAE298C828D8C
:10042000838EF0E4120FF4852A82852B8322E9253E
:1004300027FCEA3528FDAE298C828D838EF0EB12E5
:100440000FF409B900010A892A8A2B8098E52A2528
:1004500027FAE52B3528FBAC298A828B838CF0E4C4
:10046000120FF485258285268322AA8274075AF505
:10047000F005F07401800225E0D5F0FBFBEAC454DE
:100480000FFA24FC4022EA2A2A90048D7302049970
:1004900002049D0204A10204A5EB42A422EB42A5A2
:1004A00022EB42A622EB429C22AA8274075AF5F064
:1004B00005F07401800225E0D5F0FBF4FBEAC4549A
:1004C0000FFA24FC4022EA2A2A9004CD730204D9B0
:1004D0000204DD0204E10204E5EB52A422EB52A582
:1004E00022EB52A622EB529C22AA8274075AF5F004
:1004F00005F07401800225E0D5F0FBFBEAC4540F3F
:10050000FA24FC4022EA2A2A90050C7302051802FC
:10051000051C020520020524EB428022EB429022BA
:10052000EB42A022EB42B022AA8274075AF5F005F2
:10053000F07401800225E0D5F0FBF4FBEAC4540F0F
:10054000FA24FC4022EA2A2A90054C73020558023C
:10055000055C020560020564EB528022EB5290229A
:10056000EB52A022EB52B022AA8274075AF5F00592
:10057000F07401800225E0D5F0FBFBEAC4540FFAC9
:1005800024FC4013EA2A2A90058B73020597020582
:100590009D0205A30205A9EB5580FA8010EB55904A
:1005A000FA800AEB55A0FA8004EB55B0FAEA24FF72
:1005B00022AA82C002120568D002402E90000AC012
:1005C0000212026FD0028A82C002120568E433D0A0
:1005D0000260F390000AC00212026FD0028A8212F7
:1005E0000568E433FABA0102D322C322758A007582
:1005F0008C00C28D75220020A1FD30A1FDD28C306F
:10060000A109108D0280F8052280F420A109108D27
:100610000280F8052280F4C28C852282120F47AA3C
:1006200082AB83ACF0FDC002C003C004C0059000E3
:100630000075F0807447120EA4AA82AB83ACF0FD63
:10064000E58124FCF581858C82C002C003C004C012
:1006500005120F47AE82AF83A8F0F9C006C007C0ED
:1006600000C00190000075F0807443120EA4AE82A9
:10067000AF83A8F0F9E58124FCF581D005D004D042
:1006800003D002C006C007C000C0018A828B838CE1
:10069000F0ED120F52AA82AB83ACF0FDE58124FC91
:1006A000F581AE8A7F008E828F83C002C003C004B2
:1006B000C0051210A2AE82AF83A8F0F9D005D00415
:1006C000D003D002C006C007C000C0018A828B835D
:1006D0008CF0ED120F52AA82AB83ACF0FDE58124C1
:1006E000FCF581C002C003C004C00590F4FC75F0A5
:1006F000327434120EA4AA82AB83ACF0FDE58124DF
:10070000FCF581C002C003C004C0059051EC75F037
:10071000B8743F120EA4AA82AB83ACF0FDE581242D
:10072000FCF581E4C0E07450C0E07436C0E074456C
:10073000C0E08A828B838CF0ED1210AFAA82AB836B
:10074000ACF0FDE58124FCF5818A828B838CF0ED91
:1007500022AA82AB837C007D007E007F0078007936
:1007600000BA0005BB0002801CBA0106BB000302F0
:10077000085DBA0206BB000302087FBA0306BB008D
:10078000030208A1229003E812026F1205EC858291
:100790003485833585F036F537E5304531704FC007
:1007A00034C035C036C03790240075F074744912D7
:1007B0000EA485824B85834C85F04DF54EE5812452
:1007C000FCF581C04BC04CC04DC04E7474C0E07489
:1007D00000C0E07480C0E0743AC0E07400C0E0740F
:1007E00040C0E012105CE58124F6F581804DC034F4
:1007F000C035C036C037906B2875F06E744E120E3F
:10080000A485824B85834C85F04DF54EE58124FC13
:10081000F581C04BC04CC04DC04E747CC0E074002C
:10082000C0E07480C0E0743AC0E07400C0E074407E
:10083000C0E012105CE58124F6F581752301752472
:1008400000D20090008475F08012033B752302757E
:100850002400D20090003A75F04002033B7523015A
:10086000752402D20090009575F08012033B752329
:1008700002752400D2009000A175F08002033B7540
:100880002301752401D2009000B275F08012033B61
:10089000752302752400D2009000C175F080020318
:1008A0003BE53245337003020B7FE4F538F539C37D
:1008B000E5389405E539648094804003020B2A757D
:1008C0002301752400D2009000D275F080C004C0CE
:1008D00005C006C007C000C00112033B1205EC852D
:1008E000823485833585F036F537745FC0E07470E7
:1008F000C0E07489C0E07430C0E0853482853583FF
:100900008536F0E537120E44AA82E58124FCF58194
:10091000D001D000D007D006D005D004EA602CC0AA
:1009200004C005C034C035C036C0378E828F83887E
:10093000F0E9120F52AE82AF83A8F0F9E58124FCF2
:10094000F581D005D0040CBC00010D9000C8C00496
:10095000C005C006C007C000C00112026F752301A8
:10096000752400D2009000DC75F08012033B120564
:10097000EC85823485833585F036F537745FC0E0C9
:100980007470C0E07489C0E07430C0E08534828542
:1009900035838536F0E537120E44AA82E58124FCC2
:1009A000F581D001D000D007D006D005D004EA6090
:1009B0002CC004C005C034C035C036C0378E828F0D
:1009C0008388F0E9120F52AE82AF83A8F0F9E58177
:1009D00024FCF581D005D0040CBC00010D9000C8AA
:1009E000C004C005C006C007C000C00112026F7578
:1009F0002301752400D2009000E775F08012033BBC
:100A00001205EC85823485833585F036F537745FC1
:100A1000C0E07470C0E07489C0E07430C0E0853418
:100A2000828535838536F0E537120E44AA82E5814A
:100A300024FCF581D001D000D007D006D005D00429
:100A4000EA602CC004C005C034C035C036C0378E43
:100A5000828F8388F0E9120F52AE82AF83A8F0F93B
:100A6000E58124FCF581D005D0040CBC00010D907B
:100A700000C8C004C005C006C007C000C001120203
:100A80006F752301752400D2009000F375F0801279
:100A9000033B1205EC85823485833585F036F537C6
:100AA000745FC0E07470C0E07489C0E07430C0E06E
:100AB0008534828535838536F0E537120E44AA8267
:100AC000E58124FCF581D001D000D007D006D00507
:100AD000D004EA602CC004C005C034C035C036C0A4
:100AE000378E828F8388F0E9120F52AE82AF83A8CF
:100AF000F0F9E58124FCF581D005D0040CBC00019F
:100B00000D9000C8C004C005C006C007C000C001E9
:100B100012026FD001D000D007D006D005D0040556
:100B200038E4B5380205390208AFEC4D603D8C82DF
:100B30008D83C006C007C000C0011210A2AA82ABFC
:100B400083ACF0FDD001D000D007D006C002C003B6
:100B5000C004C0058E828F8388F0E91210AFAE8288
:100B6000AF83A8F0F9E58124FCF5818E2C8F2D88C8
:100B70002E892F7582011202FA90001412026F74EE
:100B80005FC0E07470C0E07489C0E07430C0E0857C
:100B90002C82852D83852EF0E52F120E74AA82E516
:100BA0008124FCF581EA6022752301752400D200BE
:100BB00090010075F08012033B752302752400D26A
:100BC0000090011075F08002033BE5304531704B19
:100BD000C02CC02DC02EC02F90240075F074744915
:100BE000120EA4AA82AB83ACF0FDE58124FCF58152
:100BF000C002C003C004C005741AC0E07401C0E0A4
:100C00007480C0E0743AC0E07400C0E07440C0E09A
:100C100012105CE58124F6F5818049C02CC02DC0FE
:100C20002EC02F906B2875F06E744E120EA4AA82FF
:100C3000AB83ACF0FDE58124FCF581C002C003C0AC
:100C400004C0057422C0E07401C0E07480C0E07488
:100C50003AC0E07400C0E07440C0E012105CE5816E
:100C600024F6F581752301752400D20090012A75C0
:100C7000F08012033B752302752400D20090003AE5
:100C800075F04002033B7A017B007C007D00C002CE
:100C9000C003C004C0051202A1120309E4F530F537
:100CA00031F532F5339000011207519001F4120230
:100CB0006F7437C0E07401C0E07480C0E0120FC0F0
:100CC00015811581158174DBC0E07401C0E074806A
:100CD000C0E074CFC0E07401C0E07480C0E0748BE9
:100CE000C0E07401C0E07480C0E0743CC0E07401F6
:100CF000C0E07480C0E0120FC0E58124F4F5817576
:100D0000820112046A7582211204A97582261204D6
:100D1000A97582231204A9D005D004D003D0027E85
:100D2000007F00758226C002C003C004C005C00653
:100D3000C0071205B1E433D007D006D005D004D0E7
:100D400003D0026050BA0109BB00067A007B008024
:100D50001EBA0209BB00067A017B008012BA0309A1
:100D6000BB00067A027B008006ECF4FCEDF4FD7516
:100D70008201C002C003C004C005C006C007120241
:100D8000FA90000512026FD007D006D005D004D02B
:100D900003D0028071758223C002C003C004C00565
:100DA000C006C0071205B1E433D007D006D005D085
:100DB00004D003D002604FBA0109BB00067A027B5F
:100DC00000801FEA4B70057A01FB8016BA020DBB4A
:100DD000000A7A037B007E017F008006ECF4FCEDC4
:100DE000F4FD758201C002C003C004C005C006C086
:100DF000071202FA90000512026FD007D006D00544
:100E0000D004D003D0028C308D318E328F338A8261
:100E10008B83C002C003C004C005120751D005D0A7
:100E200004D003D002020D1F20F71430F61488837B
:100E3000A88220F507E6A88375830022E280F7E404
:100E40009322E022FFA88118181211ECD2D133E6C8
:100E5000400730E70B7582012220E70675820022E9
:100E6000C2D11211CEE97003F5822230D101B3E470
:100E700033F58222FFA88118181211ECD2D133E683
:100E8000400730E70B7582002220E70675820122B9
:100E9000C2D11211CEE97003F5822220D101B3E450
:100EA00033F58222121299BC0003021238EF60FA65
:100EB00030D502B2D1E583B4FF0302124EE582B40D
:100EC000FF0302124E258340072482400B02123892
:100ED000248314500302124EF582EA8DF0A4A8F088
:100EE000EA8EF0A428F8E435F0F9EB8DF0A428E9B7
:100EF00035F0F9E433CA8FF0A429F9EA35F0FAEBBA
:100F0000F88EF0A429F9EA35F0FAE433FBEC8DF021
:100F1000A429F9EA35F0FAE43BFBE88FF0A42AFAB9
:100F2000EB35F0FBE433CCFD8EF0A42AFAEB35F080
:100F3000FBE43CFCED8FF0A42BFBEC35F0FC20E750
:100F400003121266021217E4AC82FBFAF9748602ED
:100F500012D01212997900E583B58202800D5003F8
:100F60001212DAE583C395821212F4E5D0C465D07B
:100F700020E117EA2DFAEB3EFBEC3FFC500974012F
:100F80001212F4EC4480FC021217C3EA9DFAEB9EA5
:100F9000FBEC9FFC500FC3E499F9E49AFAE49BFB45
:100FA000E49CFCB2D1121266021217021CC38582A5
:100FB0005D85835E85F05F851060900FAB0217162C
:100FC000C008858108E50824FBF560E50824FBF8E6
:100FD000865D08865E08865F900FAB121716D008F4
:100FE0002210980280FBAA998A82C002121CC3D0E8
:100FF000028A822220F71030F6118883A88220F519
:1010000007F6A88375830022F280F7F022AA82AB4C
:1010100009AC0AAD0B8B828C838DF0EA120FF405BC
:1010200009E4B50902050A2285820985830A85F04B
:101030000B850C5D850D5E850E5F850F6090100D34
:10104000121716AA82AB83AC09AD0AAE0B8C828D47
:10105000838EF0E4120FF48A828B8322C00885818C
:1010600008E50824F8F560E50824FBF886090886F9
:101070000A08860BE50824F8F8865D08865E08866F
:101080005F90100D121716AA82AB83AC09AD0AAEA1
:101090000B8C828D838EF0E4120FF48A828B83D0C6
:1010A0000822AC83AB827A007900748E021CE112B4
:1010B000129930D502B2D1BF0009BC000302125B05
:1010C00002124EBC0003021238E583B4FF0BE58226
:1010D000B4FF0302125B021238E582B4FF0302126E
:1010E0004EC395835007247F400B0212382480148E
:1010F000500302124EC0E0E4CCCBCAF98D118E121F
:101100008F13EF54F0C4F5147583068514F0EB8447
:10111000F582E9C4F9EAC4FAEBC4FBEC540FC478D5
:1011200003D6FC18EBD6FB18EAD6FA8582F0EDA4BC
:10113000A8F0FD8582F0EEA428FEE435F0F8858263
:10114000F0EFA428FFE435F0F8E99DF9EA9EFAEB08
:101150009FFBEC98FCAD11AE12AF1330E710158277
:10116000E92DF9EA3EFAEB3FFBE43CFC80EDC0825E
:10117000D58398C3E933F9EA33FAEB33FBEC33FC5C
:10118000C3E99DEA9EEB9FEC9400B3E413F9D0020F
:10119000D0E0C44AFAD003D0E0C44BFBD004D0E086
:1011A000F5F0540FC44CFCD082158230F40FD3EC10
:1011B00013FCEB13FBEA13FAE913F90582E930E7B4
:1011C0000A74012AFAE43BFBE43CFC02122F790189
:1011D000AA82E68F82B5821318E6B5F00E18E6B53E
:1011E000830918E68A82B58202790022B4800FE56D
:1011F000F0700AE5837006E58270027F00EFB6802A
:101200001518B6001018B6000B18B6000608080826
:1012100076002208080822B98003EA13B34010EAD6
:101220002401FAE43BFBE43CFC50047C800582BCD6
:10123000000EBB000BBA0008E4F5F0F583F582223E
:10124000A2D1E582138CF092F78B838A8222E4F597
:1012500083F58275F080F4A2D11322E4F583F58240
:1012600075F0C0747F227804EC7011E58224F85088
:101270000AF582E4C9CACBFCD8EF22EC78200582BB
:1012800020E713D5820122C3E933F9EA33FAEB33BD
:10129000FBEC33FCD8EA158222AA82AB83A2F73397
:1012A00092D16002D2F7F582ACF0E58124F9F8E63C
:1012B000FD08E6FE0886F008E6A2F73392D5600244
:1012C000D2F7F583AFF022FCABF0AA83A982749E1B
:1012D000C2D1F582121266021217E582C583F58229
:1012E000A2D133A2D592D11392D5ECCFFCEBCEFB99
:1012F000EACDFA226040F82582500274FFF582E8B8
:1013000024F8501ECCCBCAF9E4CC24F85014CBCA34
:10131000F9E4CB24F8500BCAF9E4CA24F850037955
:10132000002224086010F8C3EC13FCEB13FBEA1353
:10133000FAE913F9D8F122AA827448C0E07413C004
:10134000E0C04FC0508A82220556E4B556020557C8
:1013500022AA8274302AFA24C6500A74072AFA3064
:1013600001034302208A82021337E582FAC4540F34
:10137000F582C002121351D002740F5AF582021383
:1013800051AA51AB52AC53AD54AE55755C20EE2E04
:10139000FEED235401FF4206EA2AFAEB33FBEC335D
:1013A000FCED33FDC3EE95584008EEC39558FE435F
:1013B0000201D55CD98A518B528C538D548E5522A3
:1013C000786DE624D075F00AA4FA786EE624D02A67
:1013D000FA786C8603BB2D04C3E49AFA755801C3EE
:1013E000E464808AF063F08095F05029755C038A8C
:1013F0000374F6255C401C0558E55C142461F8E58F
:101400005C2461F98704A604772E1BEBFA600405BF
:101410005C80DE8B02EA30E70D786286037863A693
:10142000037862762E0AE55A600AE55A04FB2558CD
:10143000F5588005300C02055878618603E4BB2D11
:101440000104FB700620070330080205583005032D
:10145000021507300657EB600C75822DC00212137F
:1014600037D002801C30070C75822BC00212133754
:10147000D002800D30080A758220C002121337D0C6
:101480000278628604BC2E0C758230C002121337BB
:10149000D0021559AC591559C3E5589C40030215A3
:1014A0004B758230C002121337D00280E7AC591559
:1014B00059C3E5589C500C758220C002121337D0D6
:1014C0000280EA78618604BC2D0C75822DC0021260
:1014D0001337D002801C30070C75822BC002121308
:1014E00037D002800D30080A758220C002121337EF
:1014F000D00278628604BC2E52758230C00212136C
:1015000037D00215598044EB600E75822DC002124F
:101510001337D0021559802030070E75822BC00278
:10152000121337D0021559800F30080C758220C075
:1015300002121337D002155978628603BB2E0C7540
:101540008230C002121337D0021559755C01C20EE9
:10155000E55C2461F88603BB4503021608BB2E3404
:101560008A03C3E464808BF063F08095F0500F75BC
:101570008230C003121337D0031B8B0280E48B022E
:10158000D20EE55A7038200C0302160875822E120E
:1015900013378074300E278A03EB30E71FC3E464EF
:1015A00080855AF063F08095F0500C758230C0034E
:1015B000121337D003155A0B8B0280DD8B02300ECD
:1015C0000EC3E46480855AF063F08095F05021E505
:1015D0005C2461F886038B82C002121337D002307C
:1015E0000E0EE55C2461F88603BB2E028002155ABC
:1015F0001559C3E46480855AF063F08095F0400388
:10160000200E05055C021550C3E46480855AF06322
:10161000F08095F0500A758230121337155A80E821
:1016200030050FAA591559EA600875822012133740
:1016300080F122E55A7003300C0D7407255AFAE543
:1016400059C39AF5598006E55924FAF559755C0095
:1016500078618602BA2B0F20070C7861762020086B
:1016600005755C010559200519AA59C3E464808AEF
:10167000F063F08095F0500A7582201213371559E7
:1016800080E7C20EE55C2461F88602BA0002806938
:10169000BA451F3001027665C3E46480855AF06361
:1016A000F08095F0500A758230121337155A80E891
:1016B000D20EC3E55C9402E433FA7014EA700EC3F0
:1016C000E46480855AF063F08095F04003300E1694
:1016D000E55C2461F886028A82121337E55C24FDFA
:1016E0005012155A800E7402B55C09300C067582D2
:1016F0002E121337055C021684300519AA59C3E46B
:1017000064808AF063F08095F0500A75822012138D
:1017100037155980E72285824F858350E4F556F5C9
:1017200057AA5DAB5EAC5F8A828B838CF0120E2869
:10173000FD74012AF55DE43BF55E8C5FEDFA700304
:10174000021CBCBA25028003021CB4C205C206C238
:1017500007C208C209C20AC20BC20CC202C203C23B
:1017600004755800755900755AFFAB5DAC5EAD5FEE
:101770008B828C838DF0120E28FAA3AB82AC838B04
:101780005D8C5E8D5FBA25078A8212133780928A3C
:1017900006BE3000402E8A06EE24C6402774FFB5F0
:1017A0005A13E55975F00AA4FEEA24D02EF55970B3
:1017B000BFD20680BBE55A75F00AA4FEEA24D02EFB
:1017C000F55A80ACBA2E0A74FFB55AA4755A008037
:1017D0009F8A06BE6100400E8A06EE2485400753AC
:1017E00002DFD2018002C201BA20028075BA23034F
:1017F000021871BA2A03021876BA2B02805FBA2D3A
:10180000028055BA4202805FBA43030218BBBA4451
:10181000030219F6BA4503021A10BA4603021A0C5B
:10182000BA4703021A14BA49030219F6BA4C0280E5
:101830003BBA4E03021A18BA4F030219FDBA5003FD
:1018400002198FBA53030218DFBA5503021A02BAFB
:101850005803021A07021A42D205021770D2070271
:101860001770D208021770D20A021770D20B021733
:1018700070D20C02177074FFB55A20300A0BE56065
:1018800014F888608659021770E56024FEF88860B5
:101890008606088607188E59021770300A0BE56015
:1018A00014F88860865A021770E56024FEF8886094
:1018B0008606088607188E5A021770300A0AE560F5
:1018C00014F888608602800FE56024FEF888608640
:1018D00003088604188B028A82121337021A47E51E
:1018E0006024FDF8886086030886040886051818B9
:1018F0008B518C528D538B828C838DF0121E24ABB6
:1019000082AC838B5B74FFB55A03855B5A20051D3F
:10191000C3E55B95595016E559C3955BF559AB592D
:101920001559EB600875822012133780F1855182BA
:101930008552838553F0120E28FBFA6029AB5A15A5
:101940005AC3E464808BF063F08095F050188A826B
:10195000121337AB51AC52AD530BBB00010C8B5182
:101960008C528D5380C7200503021A47C3E55B954F
:10197000594003021A47E559C3955BF559AB591510
:1019800059EB7003021A4775822012133780EEE577
:101990006024FDF888608603088604088605181808
:1019A0008B518C528D53E553FB30E7047A438013FF
:1019B000EB546060047A50800AEB30E6047A498088
:1019C000027A588A82C00212133775823A1213378C
:1019D000758230121337758278121337D002BA49E4
:1019E00002800BBA5002800685528212136A85511A
:1019F0008212136A8051D20975580A804A755808B4
:101A0000804575580A8040755810803BD202803757
:101A1000D2038033D204802FE56024FDF8886086ED
:101A20000308860408860518188B518C528D538B39
:101A3000828C838DF0E556120FF4A3E557120FF454
:101A400080058A82121337200206200303300470B7
:101A5000E56024FCF888608603088604088605088B
:101A600086061818188B518C528D538E54E551E50B
:101A700052E553E5548B828C838DF0EE121D057474
:101A8000FFB55A03755A06300427747F5554FB8BF3
:101A900055E555EB2BFB8B55E55330E706740145B7
:101AA00055F555E55524684006749925554002D2F0
:101AB000033003061216330217211213C002172136
:101AC000E55870030217217B66300A2BE56014F895
:101AD0008860E6FC3395E0FDFEFF8C518D528E53FD
:101AE0008F5420095EAC517D007E007F008C518DAB
:101AF000528E538F54804C300B1FE56024FCF888C5
:101B00006086040886050886060886071818188C5B
:101B1000518D528E538F54802AE56024FEF88860E0
:101B2000860408860518ED3395E0FEFF8C518D5232
:101B30008E538F5420090CAC51AD527E007F008E25
:101B4000538F54300C43E551455245534554603949
:101B50007408B5580C758230C003121337D0038057
:101B6000287410B55823758230C003121337D00380
:101B700030010C758278C003121337D003800A75C8
:101B80008258C003121337D003300925AC51AD522F
:101B9000AE53E554FF30E717C3E49CFCE49DFDE43D
:101BA0009EFEE49FFF8C518D528E538F548002C253
:101BB00009755B00D20D8B00755500C000121381B2
:101BC000D000200D0DE555C4FCE6FD4CF618880349
:101BD0008002A655055BB20DE5514552455345546B
:101BE00070D68803E559700375590120061A20053F
:101BF00017E55B04FCC39559500E758220C0031293
:101C00001337D003155980E930090E75822DC003B2
:101C1000121337D00315598024E55B602030070E7E
:101C200075822BC003121337D0031559800F30086B
:101C30000C758220C003121337D003155920051EDE
:101C4000AC591559C3E55B9C50273006047C3080A5
:101C5000027C208C82C003121337D00380E2C3E5DC
:101C60005B95595009E559C3955BF5598003755942
:101C7000008B00AB5B155BEB6022B20D200D0A08F8
:101C8000E6C4540FFB8B5580078603740F5BF55534
:101C9000855582C000121351D00080D72005030261
:101CA0001721AB591559EB700302172175822012C9
:101CB000133780EE8A8212133702172185568285E8
:101CC000578322AA82BA0A0810990280FB75990DDF
:101CD00010990280FB8A9922FCABF0AA83A9827436
:101CE0009EF582C2D1EC30E716D2D1E9F42401F995
:101CF000EAF43400FAEBF43400FBECF43400FC12A8
:101D00001266021217C0E0F84582458345F070095B
:101D1000F5F0FBFCFDFE021DD3E823A2F792E0F8EC
:101D2000A982AA83D2F7ABF07C007E07C374979890
:101D3000404074FF2EFE740A89F0A4F985F0827485
:101D40000A8AF0A4FA85F083740A8BF0A4FB740568
:101D500029F9EA3582FAEB3583FB740035F0FCC3D0
:101D6000EC13FCEB13FBEA13FAE913F908EC70EF40
:101D700080BAE8C3947FF88B838EF0E4FBFCFDFE11
:101D8000FF08C3E933F9EA33FAE58333F583EB3B24
:101D9000D4FBEC3CD4FCED3DD4FDEE3ED4FEEF3F55
:101DA000D4FF602D05F074052BD4FBE43CD4FCE497
:101DB0003DD4FDE43ED4FEE43FD4FF758204C3EF7E
:101DC00013FFEE13FEED13FDEC13FCEB13FBD582BA
:101DD000EDD8AF7861D0E020E704762B8002762D35
:101DE000087906E7C4540F4430F608B90603762E86
:101DF00008E7540F4430F60819B902E7764508E5BC
:101E0000F020E704762B8004762DF4040875F00AA0
:101E1000844430F608E5F04430F608E4F6900061BA
:101E200075F04022AA82AB83ACF07D007E008A82EE
:101E30008B838CF0120E28FFA3AA82AB83EF60077E
:101E40000DBD00EA0E80E78D828E83220000000027
:00000001FF
