:10000000020003758131120114E582600302006F62
:10001000780079007A007B007C007D00EC4D601C4C
:1000200088828983E493A3A882A9838A828B83F040
:10003000A3AA82AB831CBCFFE31D80E07582007520
:1000400083007C007D00EC4D600AE4F0A31CBCFF43
:10005000F51D80F27582007583007C007D00EC4DFB
:10006000600AE4F0A31CBCFFF51D80F2120113121C
:10007000029380FE1B5B324A004144432074657347
:10008000742070726F6772616D0A46696C653A2000
:1000900025730A436F6D70696C65643A2025732C73
:1000A0002025730A0A00433A5C55736572735C77C6
:1000B0006F6E67685C4F6E654472697665202D20AF
:1000C0005542435C5542435C5965617220325C4540
:1000D0004C4543203239315C454C45432D32393152
:1000E0005C4C6162355C45464D385F4144432E634C
:1000F000004D617220203420323032350031363AE2
:1001000033353A343800565F736967203D20252E19
:100110003566002275A7007597DE7597AD75FF806F
:1001200075EF0675A71075C12075A70075A9007534
:10013000A900E5A930E7FB75A90375A903E5A93076
:10014000E7FB43A41075E10175E20075E340759883
:1001500010758DE6858D8B53890F438920D28ED201
:10016000997582002275A700C2EF75B28075BC2018
:1001700075B91E75E80075DF3F75B300D2EF22AA8E
:1001800082438E407592B87593FF859294859395BE
:100190007591047B00C3EB9A500BE59130E7FB535C
:1001A000917F0B80F075910022AA82AB837C007D49
:1001B00000C3EC9AED9B502B7E00BE0400501D75D1
:1001C00082FAC002C003C004C005C00612017FD07D
:1001D00006D005D004D003D0020E80DE0CBC00D1C6
:1001E0000D80CE22AA82851CF005F07401800225C4
:1001F000E0D5F0FBFB75A720BA0002800ABA010225
:10020000800FBA021E8014EBF4FA52F1EB42D48054
:1002100012EBF4FA52F2EB42D58008EBF4FA52F307
:10022000EB42CC75A700228582BBC2EDD2EC30ED4B
:10023000FD85BD8285BE8322120227120325AA8274
:10024000AB83ACF0FDC002C003C004C005906C8B52
:1002500075F0537440120331AA82AB83ACF0FDE514
:100260008124FCF581E4C0E074FCC0E0747FC0E050
:100270007446C0E08A828B838CF0ED12040AAA8255
:10028000AB83ACF0FDE58124FCF5818A828B838C05
:10029000F0ED229001F41201A97474C0E07400C062
:1002A000E07480C0E01203E915811581158174FDA9
:1002B000C0E07400C0E07480C0E074F1C0E074007D
:1002C000C0E07480C0E074A6C0E07400C0E0748038
:1002D000C0E07479C0E07400C0E07480C0E0120334
:1002E000E9E58124F4F581751C037582021201E4AD
:1002F000120165758210120238AA82AB83ACF0FD40
:10030000C002C003C004C0057406C0E07401C0E0B0
:100310007480C0E01203E9E58124F9F5819001F4CD
:100320001201A980CEE4AC83AB82FAF9748E020587
:10033000321205BEBC000302055DEF60FA30D50243
:10034000B2D1E583B4FF03020573E582B4FF030273
:100350000573258340072482400B02055D24831426
:100360005003020573F582EA8DF0A4A8F0EA8EF03E
:10037000A428F8E435F0F9EB8DF0A428E935F0F97C
:10038000E433CA8FF0A429F9EA35F0FAEBF88EF0DD
:10039000A429F9EA35F0FAE433FBEC8DF0A429F94D
:1003A000EA35F0FAE43BFBE88FF0A42AFAEB35F0EB
:1003B000FBE433CCFD8EF0A42AFAEB35F0FBE43CF1
:1003C000FCED8FF0A42BFBEC35F0FC20E7031205CD
:1003D0008B02053C020F7885821885831985F01AF7
:1003E00085091B9003D40209CBC008858108E50864
:1003F00024FBF51BE50824FBF886180886190886F7
:100400001A9003D41209CBD008221205BE30D502AF
:10041000B2D1BF0009BC0003020580020573BC0015
:100420000302055DE583B4FF0BE582B4FF0302051B
:100430008002055DE582B4FF03020573C395835016
:1004400007247F400B02055D2480145003020573CE
:10045000C0E0E4CCCBCAF98D1C8E1D8F1EEF54F08A
:10046000C4F51F758306851FF0EB84F582E9C4F996
:10047000EAC4FAEBC4FBEC540FC47803D6FC18EBC7
:10048000D6FB18EAD6FA8582F0EDA4A8F0FD8582A5
:10049000F0EEA428FEE435F0F88582F0EFA428FF02
:1004A000E435F0F8E99DF9EA9EFAEB9FFBEC98FC45
:1004B000AD1CAE1DAF1E30E7101582E92DF9EA3EE6
:1004C000FAEB3FFBE43CFC80EDC082D58398C3E9A6
:1004D00033F9EA33FAEB33FBEC33FCC3E99DEA9ED4
:1004E000EB9FEC9400B3E413F9D002D0E0C44AFAD5
:1004F000D003D0E0C44BFBD004D0E0F5F0540FC4DF
:100500004CFCD082158230F40FD3EC13FCEB13FBC0
:10051000EA13FAE913F90582E930E70A74012AFAC5
:10052000E43BFBE43CFC020554FCABF0AA83A9824B
:10053000749EC2D1F58212058B02053CB98003EA94
:1005400013B34010EA2401FAE43BFBE43CFC500402
:100550007C800582BC000EBB000BBA0008E4F5F0FD
:10056000F583F58222A2D1E582138CF092F78B837A
:100570008A8222E4F583F58275F080F4A2D11322F9
:10058000E4F583F58275F0C0747F227804EC701175
:10059000E58224F8500AF582E4C9CACBFCD8EF22E0
:1005A000EC7820058220E713D5820122C3E933F9D4
:1005B000EA33FAEB33FBEC33FCD8EA158222AA8249
:1005C000AB83A2F73392D16002D2F7F582ACF0E5AB
:1005D0008124F9F8E6FD08E6FE0886F008E6A2F7B1
:1005E0003392D56002D2F7F583AFF022AA8274FD70
:1005F000C0E07405C0E0C00AC00B8A82220511E485
:10060000B51102051222AA8274302AFA24C6500AB1
:1006100074072AFA3000034302208A820205ECE5BF
:1006200082FAC4540FF582C002120606D002740F7B
:100630005AF582020606AA0CAB0DAC0EAD0FAE1039
:10064000751720EE2EFEED235401FF4206EA2AFA2A
:10065000EB33FBEC33FCED33FDC3EE95134008EEBA
:10066000C39513FE430201D517D98A0C8B0D8C0E4E
:100670008D0F8E1022782EE624D075F00AA4FA7819
:100680002FE624D02AFA782D8603BB2D04C3E49AE2
:10069000FA751301C3E464808AF063F08095F0502A
:1006A000297517038A0374F62517401C0513E517EF
:1006B000142422F8E5172422F98704A604772E1BB8
:1006C000EBFA6004051780DE8B02EA30E70D782331
:1006D00086037824A6037823762E0AE515600AE5BA
:1006E0001504FB2513F5138005300B020513782242
:1006F0008603E4BB2D0104FB7006200603300702CD
:1007000005133004030207BC300557EB600C7582FB
:100710002DC0021205ECD002801C30060C75822B15
:10072000C0021205ECD002800D30070A758220C08D
:10073000021205ECD00278238604BC2E0C758230A0
:10074000C0021205ECD0021514AC141514C3E51345
:100750009C4003020800758230C0021205ECD002F2
:1007600080E7AC141514C3E5139C500C758220C0AF
:10077000021205ECD00280EA78228604BC2D0C75AA
:10078000822DC0021205ECD002801C30060C75824E
:100790002BC0021205ECD002800D30070A758220B2
:1007A000C0021205ECD00278238604BC2E5275825A
:1007B00030C0021205ECD00215148044EB600E75B7
:1007C000822DC0021205ECD0021514802030060ED6
:1007D00075822BC0021205ECD0021514800F300771
:1007E0000C758220C0021205ECD002151478238605
:1007F00003BB2E0C758230C0021205ECD00215141A
:10080000751701C20DE5172422F88603BB450302C4
:1008100008BDBB2E348A03C3E464808BF063F08090
:1008200095F0500F758230C0031205ECD0031B8B7E
:100830000280E48B02D20DE5157038200B0302080C
:10084000BD75822E1205EC8074300D278A03EB30C3
:10085000E71FC3E464808515F063F08095F0500CC9
:10086000758230C0031205ECD00315150B8B028086
:10087000DD8B02300D0EC3E464808515F063F080DB
:1008800095F05021E5172422F886038B82C00212CE
:1008900005ECD002300D0EE5172422F88603BB2E9E
:1008A00002800215151514C3E464808515F063F009
:1008B0008095F04003200D050517020805C3E46488
:1008C000808515F063F08095F0500A75823012052E
:1008D000EC151580E830040FAA141514EA600875A9
:1008E00082201205EC80F122E5157003300B0D74A7
:1008F000072515FAE514C39AF5148006E51424FAC1
:10090000F51475170078228602BA2B0F20060C7892
:100910002276202007057517010514200419AA1452
:10092000C3E464808AF063F08095F0500A758220F9
:100930001205EC151480E7C20DE5172422F8860293
:10094000BA00028069BA451F3000027665C3E464CC
:10095000808515F063F08095F0500A75823012059D
:10096000EC151580E8D20DC3E5179402E433FA7054
:1009700014EA700EC3E464808515F063F08095F08E
:100980004003300D16E5172422F886028A821205EC
:10099000ECE51724FD50121515800E7402B51709E9
:1009A000300B0675822E1205EC051702093930044A
:1009B00019AA14C3E464808AF063F08095F0500AA9
:1009C0007582201205EC151480E72285820A858342
:1009D0000BE4F511F512AA18AB19AC1A8A828B83B5
:1009E0008CF0120F8DFD74012AF518E43BF5198C7B
:1009F0001AEDFA7003020F71BA25028003020F6923
:100A0000C204C205C206C207C208C209C20AC20B9A
:100A1000C201C202C2037513007514007515FFAB45
:100A200018AC19AD1A8B828C838DF0120F8DFAA33E
:100A3000AB82AC838B188C198D1ABA25078A821267
:100A400005EC80928A06BE3000402E8A06EE24C64F
:100A5000402774FFB51513E51475F00AA4FEEA24C7
:100A6000D02EF51470BFD20580BBE51575F00AA431
:100A7000FEEA24D02EF51580ACBA2E0A74FFB51507
:100A8000A4751500809F8A06BE6100400E8A06EE9E
:100A9000248540075302DFD2008002C200BA200240
:100AA0008075BA2303020B26BA2A03020B2BBA2B3A
:100AB00002805FBA2D028055BA4202805FBA4303BA
:100AC000020B70BA4403020CABBA4503020CC5BA60
:100AD0004603020CC1BA4703020CC9BA4903020C0F
:100AE000ABBA4C02803BBA4E03020CCDBA4F0302A4
:100AF0000CB2BA5003020C44BA5303020B94BA5519
:100B000003020CB7BA5803020CBC020CF7D2040261
:100B10000A25D206020A25D207020A25D209020AAC
:100B200025D20A020A25D20B020A2574FFB5152028
:100B300030090BE51B14F8881B8614020A25E51BF7
:100B400024FEF8881B8606088607188E14020A25DC
:100B500030090BE51B14F8881B8615020A25E51BD6
:100B600024FEF8881B8606088607188E15020A25BB
:100B700030090AE51B14F8881B8602800FE51B2448
:100B8000FEF8881B8603088604188B028A821205E9
:100B9000EC020CFCE51B24FDF8881B860308860488
:100BA00008860518188B0C8C0D8D0E8B828C838D0E
:100BB000F01210E1AB82AC838B1674FFB515038580
:100BC000161520041DC3E51695145016E514C3959B
:100BD00016F514AB141514EB60087582201205ECA1
:100BE00080F1850C82850D83850EF0120F8DFBFA46
:100BF0006029AB151515C3E464808BF063F0809514
:100C0000F050188A821205ECAB0CAC0DAD0E0BBB8C
:100C100000010C8B0C8C0D8D0E80C7200403020C80
:100C2000FCC3E51695144003020CFCE514C39516AD
:100C3000F514AB141514EB7003020CFC7582201232
:100C400005EC80EEE51B24FDF8881B86030886046E
:100C500008860518188B0C8C0D8D0EE50EFB30E701
:100C6000047A438013EB546060047A50800AEB30BE
:100C7000E6047A4980027A588A82C0021205EC752D
:100C8000823A1205EC7582301205EC7582781205F5
:100C9000ECD002BA4902800BBA50028006850D8260
:100CA00012061F850C8212061F8051D20875130A86
:100CB000804A751308804575130A804075131080AB
:100CC0003BD2018037D2028033D203802FE51B2430
:100CD000FDF8881B860308860408860518188B0C07
:100CE0008C0D8D0E8B828C838DF0E5111210C8A3B4
:100CF000E5121210C880058A821205EC2001062038
:100D00000203300370E51B24FCF8881B8603088669
:100D1000040886050886061818188B0C8C0D8D0E95
:100D20008E0FE50CE50DE50EE50F8B828C838DF0C3
:100D3000EE120FA974FFB51503751506300327745D
:100D40007F550FFB8B10E510EB2BFB8B10E50E3066
:100D5000E70674014510F510E51024684006749903
:100D600025104002D2023002061208E80209D6120B
:100D700006750209D6E51370030209D67B273009F0
:100D80002BE51B14F8881BE6FC3395E0FDFEFF8C79
:100D90000C8D0D8E0E8F0F20085EAC0C7D007E003A
:100DA0007F008C0C8D0D8E0E8F0F804C300A1FE54E
:100DB0001B24FCF8881B860408860508860608861E
:100DC000071818188C0C8D0D8E0E8F0F802AE51BBE
:100DD00024FEF8881B860408860518ED3395E0FE8E
:100DE000FF8C0C8D0D8E0E8F0F20080CAC0CAD0DF2
:100DF0007E007F008E0E8F0F300B43E50C450D45B6
:100E00000E450F60397408B5130C758230C003129B
:100E100005ECD00380287410B51323758230C0030D
:100E20001205ECD00330000C758278C0031205EC7B
:100E3000D003800A758258C0031205ECD003300835
:100E400025AC0CAD0DAE0EE50FFF30E717C3E49CEB
:100E5000FCE49DFDE49EFEE49FFF8C0C8D0D8E0E48
:100E60008F0F8002C208751600D20C8B007510001F
:100E7000C000120636D000200C0DE510C4FCE6FDC3
:100E80004CF61888038002A6100516B20CE50C4536
:100E90000D450E450F70D68803E5147003751401D7
:100EA00020051A200417E51604FCC39514500E758E
:100EB0008220C0031205ECD003151480E930080E1F
:100EC00075822DC0031205ECD00315148024E5169D
:100ED000602030060E75822BC0031205ECD003157E
:100EE00014800F30070C758220C0031205ECD0036C
:100EF000151420041EAC141514C3E5169C5027309D
:100F000005047C3080027C208C82C0031205ECD06A
:100F10000380E2C3E51695145009E514C39516F550
:100F20001480037514008B00AB161516EB6022B20B
:100F30000C200C0A08E6C4540FFB8B1080078603B4
:100F4000740F5BF510851082C000120606D0008079
:100F5000D72004030209D6AB141514EB7003020961
:100F6000D67582201205EC80EE8A821205EC020909
:100F7000D685118285128322AA82BA0A08109902A4
:100F800080FB75990D10990280FB8A992220F71435
:100F900030F6148883A88220F507E6A883758300BD
:100FA00022E280F7E49322E022C0E0F84582458304
:100FB00045F07009F5F0FBFCFDFE021077E823A276
:100FC000F792E0F8A982AA83D2F7ABF07C007E0703
:100FD000C3749798404074FF2EFE740A89F0A4F9F8
:100FE00085F082740A8AF0A4FA85F083740A8BF083
:100FF000A4FB740529F9EA3582FAEB3583FB74000A
:1010000035F0FCC3EC13FCEB13FBEA13FAE913F91C
:1010100008EC70EF80BAE8C3947FF88B838EF0E41D
:10102000FBFCFDFEFF08C3E933F9EA33FAE583333D
:10103000F583EB3BD4FBEC3CD4FCED3DD4FDEE3E24
:10104000D4FEEF3FD4FF602D05F074052BD4FBE4F4
:101050003CD4FCE43DD4FDE43ED4FEE43FD4FF7533
:101060008204C3EF13FFEE13FEED13FDEC13FCEB54
:1010700013FBD582EDD8AF7822D0E020E704762BA1
:101080008002762D087906E7C4540F4430F608B97B
:101090000603762E08E7540F4430F60819B902E724
:1010A000764508E5F020E704762B8004762DF404DD
:1010B0000875F00A844430F608E5F04430F608E498
:1010C000F690002275F0402220F71030F611888348
:1010D000A88220F507F6A88375830022F280F7F036
:1010E00022AA82AB83ACF07D007E008A828B838C47
:1010F000F0120F8DFFA3AA82AB83EF60070DBD0036
:10110000EA0E80E78D828E8322000000000000003E
:00000001FF
