:10000000020003758172120174E582600302006FC1
:10001000780079007A007B007C007D00EC4D601C4C
:1000200088828983E493A3A882A9838A828B83F040
:10003000A3AA82AB831CBCFFE31D80E07582007520
:1000400083007C007D00EC4D600AE4F0A31CBCFF43
:10005000F51D80F27582007583007C007D00EC4DFB
:10006000600AE4F0A31CBCFFF51D80F212017312BC
:1000700007D180FE1B5B324A00506861736F7220AB
:100080004D6561757372656D656E740A5465737440
:10009000207369676E616C3A2050312E3520616E95
:1000A00064205265666572656E6365207369676E6C
:1000B000616C3A2050322E330A46696C653A20252D
:1000C000730A436F6D70696C65643A2025732C2048
:1000D00025730A0A00433A5C55736572735C776F47
:1000E0006E67685C4F6E654472697665202D205599
:1000F00042435C5542435C5965617220325C454C19
:100100004543203239315C454C45432D3239315C11
:100110004C6162355C4C6162352E63004D6172202A
:10012000203320323032350031383A33373A3036E6
:100130000056705F726566203D20252E3366562C72
:100140002056705F736967203D20252E3366562C3C
:100150002050686173652044696666203D20252E25
:1001600033666465672C2066203D20252E33664863
:100170007A0D002275A7007597DE7597AD75FF8023
:1001800075EF0675A71075C12075A70075A90075D4
:10019000A900E5A930E7FB75A90375A903E5A93016
:1001A000E7FB43A41075E10175E20075E340759823
:1001B00010758DE6858D8B53890F438920D28ED2A1
:1001C0009975820022AA82438E407592B87593FF7A
:1001D0008592948593957591047B00C3EB9A500B9F
:1001E000E59130E7FB53917F0B80F075910022AAD7
:1001F00082AB837C007D00C3EC9AED9B502B7E008C
:10020000BE0400501D7582FAC002C003C004C005C0
:10021000C0061201C5D006D005D004D003D0020E0E
:1002200080DE0CBC00D10D80CE225389F0438901C1
:10023000C28C22D2A07582281201C5C2A022AA8235
:100240008AE0A2E79290A2E69291A2E59292A2E4BD
:100250009293C0021202337582281201C5D0028A1D
:10026000E0A2E39290A2E29291A2E19292A2E092A5
:1002700093020233AA82D2978A8212023E9000022F
:100280000201EFAA82C2978A8212023E9000050202
:1002900001EFC2A09000141201EF758233120283A5
:1002A000758233120283758232120283758228129C
:1002B000028375820C120283758201120283900000
:1002C000140201EFAA82AB83ACF07401B52307746A
:1002D000802524FD800574C02524FD8D82C002C0C8
:1002E00003C0041202839000051201EFD004D00372
:1002F000D0027D007E00ED2AFFEE3BF88C018F825C
:10030000888389F01209AEFF60208F82C002C0038B
:10031000C004C005C006120274D006D005D004D0B7
:1003200003D0020DBD00CF0E80CC3000248D028E94
:1003300003C3EA9410EB648094805015758220C04A
:1003400002C003120274D003D0020ABA00E30B8089
:10035000E022AA8274075AF5F005F07401800225A4
:10036000E0D5F0FBFBEAC4540FFA24FC4013EA2A60
:100370002A9003757302038102038702038D02032F
:1003800093EB5580FA8010EB5590FA800AEB55A05C
:10039000FA8004EB55B0FAEA24FF22AA82C00212C6
:1003A0000352D002402E90000AC0021201EFD00288
:1003B0008A82C002120352E433D00260F390000A32
:1003C000C0021201EFD0028A82120352E433FABA59
:1003D0000102D322C32275A700C2EF75B28075BC9B
:1003E0002075B91E75E80075DF3F75B300D2EF22A6
:1003F000AA828554F005F07401800225E0D5F0FB57
:10040000FB75A720BA0002800ABA0102800FBA0267
:100410001E8014EBF4FA52F1EB42D48012EBF4FAA2
:1004200052F2EB42D58008EBF4FA52F3EB42CC7572
:10043000A700228582BBC2EDD2EC30EDFD85BD82E6
:1004400085BE83221204331209CAAA82AB83ACF0A0
:10045000FDC002C003C004C005908F5C75F05274EB
:10046000401209D6AA82AB83ACF0FDE58124FCF5ED
:1004700081E4C0E074FCC0E0747FC0E07446C0E07A
:100480008A828B838CF0ED120D48AA82AB83ACF08C
:10049000FDE58124FCF5818A828B838CF0ED227549
:1004A0002200C28C758C00758A00C28D20A6FD309A
:1004B000A6FDD28C30A609108D0280F8052280F4AA
:1004C00020A609108D0280F8052280F4C28C8522B6
:1004D00082120A79AA82AB83ACF0FDC002C003C0CD
:1004E00004C00590000075F08074471209D6AA82F6
:1004F000AB83ACF0FDE58124FCF581858C82C002E4
:10050000C003C004C005120A79AE82AF83A8F0F917
:10051000C006C007C000C00190000075F0807443A1
:100520001209D6AE82AF83A8F0F9E58124FCF581EB
:10053000D005D004D003D002C006C007C000C0015F
:100540008A828B838CF0ED120A84AA82AB83ACF092
:10055000FDE58124FCF581AE8A7F008E828F83C009
:1005600002C003C004C005120D3BAE82AF83A8F0E9
:10057000F9D005D004D003D002C006C007C000C027
:10058000018A828B838CF0ED120A84AA82AB83AC41
:10059000F0FDE58124FCF581C002C003C004C00564
:1005A00090F4FC75F03274341209D6AA82AB83AC95
:1005B000F0FDE58124FCF5818A828B838CF0ED22AD
:1005C000AA82AB83ACF0FDE4C0E0C0E07480C0E080
:1005D0007440C0E08A828B838CF0ED120D48AA82B1
:1005E000AB83ACF0FDE58124FCF581C002C003C003
:1005F00004C00590000075F07A74441209D6AA82EE
:10060000AB83ACF0FDE58124FCF58120A6FD30A68E
:10061000FD8A828B838CF0ED120D308582288583D4
:10062000291201EFAC25AD26AE27758210C004C09B
:1006300005C006120444AF82A883A9F0FAD006D000
:1006400005D0048C828D838EF0EF120D17A3E81273
:100650000D17A3E9120D17A3EA120D172094FD3010
:1006600094FD852882852983C004C005C006120137
:10067000EFD006D005D00474042CFCE43DFD758257
:100680000BC004C005C006120444AA82AB83AFF0BD
:10069000F8D006D005D0048C828D838EF0EA120D3E
:1006A00017A3EB120D17A3EF120D17A3E8020D17F6
:1006B000758C00758A00C28CC28D75220020A6FD43
:1006C00030A6FDD28C309409108D0280F80522806E
:1006D000F4209409108D0280F8052280F4C28C85E4
:1006E0002282120A79AA82AB83ACF0FDC002C00359
:1006F000C004C00590000075F08074471209D6AAA6
:1007000082AB83ACF0FDE58124FCF581858C82C051
:1007100002C003C004C005120A79AE82AF83A8F0FC
:10072000F9C006C007C000C00190000075F08074D9
:10073000431209D6AE82AF83A8F0F9E58124FCF517
:1007400081D005D004D003D002C006C007C000C0CD
:10075000018A828B838CF0ED120A84AA82AB83AC6F
:10076000F0FDE58124FCF581AE8A7F008E828F83C7
:10077000C002C003C004C005120D3BAE82AF83A807
:10078000F0F9D005D004D003D002C006C007C000E5
:10079000C0018A828B838CF0ED120A84AA82AB831B
:1007A000ACF0FDE58124FCF581C002C003C004C0AB
:1007B0000590F4FC75F03274341209D6AA82AB832A
:1007C000ACF0FDE58124FCF5818A828B838CF0ED11
:1007D0002212022A1202927554057582011203F048
:1007E0007554037582021203F01203D69001F412BD
:1007F00001EF7474C0E07400C0E07480C0E0120ABD
:10080000F21581158115817428C0E07401C0E0746F
:1008100080C0E0741CC0E07401C0E07480C0E0746B
:10082000D5C0E07400C0E07480C0E07479C0E074AA
:1008300000C0E07480C0E0120AF2E58124F4F58182
:1008400012049F85823A85833B85F03CF53D7525F2
:100850002A752600752740853A82853B83853CF0C2
:10086000E53D1205C01206B085823E85833F85F0C6
:1008700040F541852A46852B47852C48852D499092
:100880000000E4F5F07440120B13AC82AD83AAF0C3
:10089000FBC004C005C002C003854682854783852E
:1008A00048F0E549120D48AA82AB83ACF0FDE58122
:1008B00024FCF5818A328B338C348D35852E468528
:1008C0002F47853048853149900000E4F5F07440A9
:1008D000120B13AE82AF83AAF0FBC006C007C002A2
:1008E000C0038546828547838548F0E549120D4857
:1008F00085824685834785F048F549E58124FCF5E6
:1009000081854636854737854838854939C03EC098
:100910003FC040C04190000075F0B474431209D646
:10092000AE82AF83AAF0FBE58124FCF581C03AC01A
:100930003BC03CC03D8E828F838AF0EB120D488510
:10094000824285834385F044F545E58124FCF581A9
:10095000C03AC03BC03CC03D90000075F080743F81
:10096000120D48AE82AF83AAF0FBE58124FCF5812D
:10097000C006C007C002C003C042C043C044C04557
:10098000C046C047C048C049C032C033C034C0357B
:100990007431C0E07401C0E07480C0E0120AF2E576
:1009A0008124EDF5819001F41201EF02084020F757
:1009B0001430F6148883A88220F507E6A88375838F
:1009C0000022E280F7E49322E022E4AC83AB82FAD7
:1009D000F9748E020E70120EFCBC0003020E9BEF27
:1009E00060FA30D502B2D1E583B4FF03020EB1E55F
:1009F00082B4FF03020EB1258340072482400B021C
:100A00000E9B2483145003020EB1F582EA8DF0A4EC
:100A1000A8F0EA8EF0A428F8E435F0F9EB8DF0A404
:100A200028E935F0F9E433CA8FF0A429F9EA35F062
:100A3000FAEBF88EF0A429F9EA35F0FAE433FBEC8E
:100A40008DF0A429F9EA35F0FAE43BFBE88FF0A435
:100A50002AFAEB35F0FBE433CCFD8EF0A42AFAEB56
:100A600035F0FBE43CFCED8FF0A42BFBEC35F0FC07
:100A700020E703120EC9020E7AE4AC82FBFAF97485
:100A800086020E70120EFC7900E583B58202800D9D
:100A90005003120F2AE583C39582120F44E5D0C498
:100AA00065D020E117EA2DFAEB3EFBEC3FFC500944
:100AB0007401120F44EC4480FC020E7AC3EA9DFAE2
:100AC000EB9EFBEC9FFC500FC3E499F9E49AFAE427
:100AD0009BFBE49CFCB2D1120EC9020E7A021913E0
:100AE00085821A85831B85F01C850B1D900ADD020B
:100AF0001366C008858108E50824FBF51DE5082478
:100B0000FBF8861A08861B08861C900ADD121366FD
:100B1000D00822AA82AB83ACF0FDEA4B4C8DF0C228
:100B2000F745F070088A828B838CF0ED22C002C0FA
:100B300003C004C005E4C0E0C0E07480C0E0743FBE
:100B4000C0E08A828B838CF0ED121928AE82E58199
:100B500024FCF581D005D004D003D002EE600990CA
:100B6000000075F080743F22C002C003C004C005BD
:100B7000E4C0E0C0E0C0E0C0E08A828B838CF0ED8E
:100B8000121939AE82E58124FCF581D005D004D05C
:100B900003D002EE600D750921E4F50A900000E42F
:100BA000F5F02275544E7555007556408A828B8338
:100BB0008CF0ED1219A185824A85834B85F04CF5A6
:100BC0004DC04AC04BC04CC04D9014BA75F017745C
:100BD0003F1209D6AE82AF83A8F0F9E58124FCF577
:100BE0008174A8C0E074A9C0E074D5C0E0743EC0B0
:100BF000E08E828F8388F0E9120A84AE82AF83A8E8
:100C0000F0F9E58124FCF581C006C007C000C001F1
:100C1000C006C007C000C001854A82854B83854C51
:100C2000F0E54D120D48AA82AB83ACF0FDE58124BE
:100C3000FCF581D001D000D007D006C002C003C0AF
:100C400004C0058E828F8388F0E9120A84AE82AFD9
:100C500083A8F0F9E58124FCF5817554FE7555FFF4
:100C60008E828F8388F0E9C006C007C000C00112E1
:100C70001A3A85825085835185F052F553854A8210
:100C8000854B83854CF0E54D120D48AA82AB83ACB1
:100C9000F0FDE58124FCF581C002C003C004C0055D
:100CA0008550828551838552F0E553120A84AE82C5
:100CB000AF83A8F0F9E58124FCF581E54E30E0280A
:100CC000C006C007C000C0019004F375F035743F42
:100CD0001209D6AE82AF83A8F0F9E58124FCF58134
:100CE000054EE4B54E02054F755402E4F555854EA8
:100CF00082854F83C006C007C000C00112196985F4
:100D00008254858355D001D000D007D0068E828FC3
:100D10008388F0E9021A3A20F71030F6118883A888
:100D20008220F507F6A88375830022F280F7F0226F
:100D30007F8E121AFFF58385F08222AC83AB827A14
:100D4000007900748E021B2D120EFC30D502B2D138
:100D5000BF0009BC0003020EBE020EB1BC000302BC
:100D60000E9BE583B4FF0BE582B4FF03020EBE02C7
:100D70000E9BE582B4FF03020EB1C3958350072496
:100D80007F400B020E9B2480145003020EB1C0E082
:100D9000E4CCCBCAF98D548E558F56EF54F0C4F580
:100DA000577583068557F0EB84F582E9C4F9EAC4E8
:100DB000FAEBC4FBEC540FC47803D6FC18EBD6FB5B
:100DC00018EAD6FA8582F0EDA4A8F0FD8582F0EE4F
:100DD000A428FEE435F0F88582F0EFA428FFE4357E
:100DE000F0F8E99DF9EA9EFAEB9FFBEC98FCAD5414
:100DF000AE55AF5630E7101582E92DF9EA3EFAEB11
:100E00003FFBE43CFC80EDC082D58398C3E933F915
:100E1000EA33FAEB33FBEC33FCC3E99DEA9EEB9F2C
:100E2000EC9400B3E413F9D002D0E0C44AFAD00342
:100E3000D0E0C44BFBD004D0E0F5F0540FC44CFC20
:100E4000D082158230F40FD3EC13FCEB13FBEA13C2
:100E5000FAE913F90582E930E70A74012AFAE43B5A
:100E6000FBE43CFC020E92FCABF0AA83A982749EC8
:100E7000C2D1F582120EC9020E7AB98003EA13B309
:100E80004010EA2401FAE43BFBE43CFC50047C8083
:100E90000582BC000EBB000BBA0008E4F5F0F58338
:100EA000F58222A2D1E582138CF092F78B838A829D
:100EB00022E4F583F58275F080F4A2D11322E4F5E3
:100EC00083F58275F0C0747F227804EC7011E5829E
:100ED00024F8500AF582E4C9CACBFCD8EF22EC789A
:100EE00020058220E713D5820122C3E933F9EA33D2
:100EF000FAEB33FBEC33FCD8EA158222AA82AB83EF
:100F0000A2F73392D16002D2F7F582ACF0E58124EA
:100F1000F9F8E6FD08E6FE0886F008E6A2F7339247
:100F2000D56002D2F7F583AFF022E582C583F58262
:100F3000A2D133A2D592D11392D5ECCFFCEBCEFB4C
:100F4000EACDFA226040F82582500274FFF582E86B
:100F500024F8501ECCCBCAF9E4CC24F85014CBCAE8
:100F6000F9E4CB24F8500BCAF9E4CA24F850037909
:100F7000002224086010F8C3EC13FCEB13FBEA1307
:100F8000FAE913F9D8F122AA827498C0E0740FC06C
:100F9000E0C00CC00D8A82220513E4B513020514CB
:100FA00022AA8274302AFA24C6500A74072AFA3018
:100FB00001034302208A82020F87E582FAC4540F9C
:100FC000F582C002120FA1D002740F5AF582020FEF
:100FD000A1AA0EAB0FAC10AD11AE12751920EE2EFA
:100FE000FEED235401FF4206EA2AFAEB33FBEC3311
:100FF000FCED33FDC3EE95154008EEC39515FE4399
:101000000201D519D98A0E8B0F8C108D118E1222E8
:10101000786FE624D075F00AA4FA7870E624D02A16
:10102000FA786E8603BB2D04C3E49AFA751501C3E2
:10103000E464808AF063F08095F050297519038A82
:101040000374F62519401C0515E519142463F8E509
:10105000192463F98704A604772E1BEBFA600405B4
:101060001980DE8B02EA30E70D786486037865A686
:10107000037864762E0AE517600AE51704FB251548
:10108000F5158005300C02051578638603E4BB2D49
:101090000104FB7006200703300802051530050324
:1010A000021157300657EB600C75822DC002120FEB
:1010B00087D002801C30070C75822BC002120F876C
:1010C000D002800D30080A758220C002120F87D02E
:1010D0000278648604BC2E0C758230C002120F8721
:1010E000D0021516AC161516C3E5159C4003021167
:1010F0009B758230C002120F87D00280E7AC1615B4
:1011000016C3E5159C500C758220C002120F87D0C3
:101110000280EA78638604BC2D0C75822DC0021211
:101120000F87D002801C30070C75822BC002120F73
:1011300087D002800D30080A758220C002120F8706
:10114000D00278648604BC2E52758230C002120F21
:1011500087D00215168044EB600E75822DC00212F6
:101160000F87D0021516802030070E75822BC00223
:10117000120F87D0021516800F30080C758220C020
:1011800002120F87D002151678648603BB2E0C75E9
:101190008230C002120F87D0021516751901C20ED7
:1011A000E5192463F88603BB4503021258BB2E34AD
:1011B0008A03C3E464808BF063F08095F0500F7570
:1011C0008230C003120F87D0031B8B0280E48B0296
:1011D000D20EE5177038200C0302125875822E12B9
:1011E0000F878074300E278A03EB30E71FC3E46457
:1011F000808517F063F08095F0500C758230C00345
:10120000120F87D00315170B8B0280DD8B02300E77
:101210000EC3E464808517F063F08095F05021E5FB
:10122000192463F886038B82C002120F87D0023024
:101230000E0EE5192463F88603BB2E0280021517F3
:101240001516C3E464808517F063F08095F04003C1
:10125000200E0505190211A0C3E464808517F06310
:10126000F08095F0500A758230120F87151780E8CC
:1012700030050FAA161516EA6008758220120F872E
:1012800080F122E5177003300C0D74072517FAE57D
:1012900016C39AF5168006E51624FAF51675190098
:1012A00078638602BA2B0F20070C7863762020081B
:1012B000057519010516200519AA16C3E464808A6C
:1012C000F063F08095F0500A758220120F87151692
:1012D00080E7C20EE5192463F88602BA000280692D
:1012E000BA451F3001027665C3E464808517F06358
:1012F000F08095F0500A758230120F87151780E83C
:10130000D20EC3E5199402E433FA7014EA700EC3E6
:10131000E464808517F063F08095F04003300E168A
:10132000E5192463F886028A82120F87E51924FDE5
:1013300050121517800E7402B51909300C0675820B
:101340002E120F8705190212D4300519AA16C3E40C
:1013500064808AF063F08095F0500A758220120F45
:1013600087151680E72285820C85830DE4F513F539
:1013700014AA1AAB1BAC1C8A828B838CF01209AEA8
:10138000FD74012AF51AE43BF51B8C1CEDFA700381
:1013900002190CBA25028003021904C205C206C252
:1013A00007C208C209C20AC20BC20CC202C203C2EF
:1013B000047515007516007517FFAB1AAC1BAD1C34
:1013C0008B828C838DF01209AEFAA3AB82AC838B37
:1013D0001A8C1B8D1CBA25078A82120F8780928A6D
:1013E00006BE3000402E8A06EE24C6402774FFB5A4
:1013F0001713E51675F00AA4FEEA24D02EF5167030
:10140000BFD20680BBE51775F00AA4FEEA24D02EF1
:10141000F51780ACBA2E0A74FFB517A475170080B3
:101420009F8A06BE6100400E8A06EE24854007535F
:1014300002DFD2018002C201BA20028075BA230302
:101440000214C1BA2A030214C6BA2B02805FBA2D55
:10145000028055BA4202805FBA430302150BBA44B8
:1014600003021646BA4503021660BA460302165C2A
:10147000BA4703021664BA4903021646BA4C028000
:101480003BBA4E03021668BA4F0302164DBA500318
:101490000215DFBA530302152FBA5503021652BACA
:1014A0005803021657021692D2050213C0D2070241
:1014B00013C0D2080213C0D20A0213C0D20B021307
:1014C000C0D20C0213C074FFB51720300A0BE51D03
:1014D00014F8881D86160213C0E51D24FEF8881D29
:1014E0008606088607188E160213C0300A0BE51D03
:1014F00014F8881D86170213C0E51D24FEF8881D08
:101500008606088607188E170213C0300A0AE51DE2
:1015100014F8881D8602800FE51D24FEF8881D86BC
:1015200003088604188B028A82120F87021697E539
:101530001D24FDF8881D86030886040886051818F2
:101540008B0E8C0F8D108B828C838DF0121C70ABE8
:1015500082AC838B1874FFB5170385181720051DFF
:10156000C3E51895165016E516C39518F516AB1673
:101570001516EB6008758220120F8780F1850E82A8
:10158000850F838510F01209AEFBFA6029AB1715A1
:1015900017C3E464808BF063F08095F050188A8262
:1015A000120F87AB0EAC0FAD100BBB00010C8B0EF6
:1015B0008C0F8D1080C7200503021697C3E5189580
:1015C000164003021697E516C39518F516AB1615C7
:1015D00016EB7003021697758220120F8780EEE5D6
:1015E0001D24FDF8881D8603088604088605181842
:1015F0008B0E8C0F8D10E510FB30E7047A438013BF
:10160000EB546060047A50800AEB30E6047A49803B
:10161000027A588A82C002120F8775823A120F87A7
:10162000758230120F87758278120F87D002BA49FF
:1016300002800BBA50028006850F82120FBA850E07
:1016400082120FBA8051D20975150A804A751508A1
:10165000804575150A8040751510803BD202803791
:10166000D2038033D204802FE51D24FDF8881D8627
:101670000308860408860518188B0E8C0F8D108BB6
:10168000828C838DF0E513120D17A3E514120D174C
:1016900080058A82120F872002062003033004701F
:1016A000E51D24FCF8881D860308860408860508C5
:1016B00086061818188B0E8C0F8D108E11E50EE50E
:1016C0000FE510E5118B828C838DF0EE121B5174A7
:1016D000FFB51703751706300427747F5511FB8B70
:1016E00012E512EB2BFB8B12E51030E70674014577
:1016F00012F512E51224684006749925124002D2B0
:1017000003300306121283021371121010021371B8
:10171000E51570030213717B68300A2BE51D14F880
:10172000881DE6FC3395E0FDFEFF8C0E8D0F8E10BC
:101730008F1120095EAC0E7D007E007F008C0E8D27
:101740000F8E108F11804C300B1FE51D24FCF88884
:101750001D86040886050886060886071818188C52
:101760000E8D0F8E108F11802AE51D24FEF8881D26
:10177000860408860518ED3395E0FEFF8C0E8D0F6C
:101780008E108F1120090CAC0EAD0F7E007F008EE5
:10179000108F11300C43E50E450F4510451160398F
:1017A0007408B5150C758230C003120F87D0038002
:1017B000287410B51523758230C003120F87D0032B
:1017C00030010C758278C003120F87D003800A7530
:1017D0008258C003120F87D003300925AC0EAD0F1D
:1017E000AE10E511FF30E717C3E49CFCE49DFDE477
:1017F0009EFEE49FFF8C0E8D0F8E108F118002C213
:1018000009751800D20D8B00751200C000120FD19F
:10181000D000200D0DE512C4FCE6FD4CF61888033F
:101820008002A6120518B20DE50E450F45104511B0
:1018300070D68803E516700375160120061A200578
:1018400017E51804FCC39516500E758220C00312CC
:101850000F87D003151680E930090E75822DC0035D
:10186000120F87D00315168024E518602030070E6C
:1018700075822BC003120F87D0031516800F300816
:101880000C758220C003120F87D003151620051E89
:10189000AC161516C3E5189C50273006047C308022
:1018A000027C208C82C003120F87D00380E2C3E544
:1018B0001895165009E516C39518F5168003751688
:1018C000008B00AB181518EB6022B20D200D0A0832
:1018D000E6C4540FFB8B1280078603740F5BF5126E
:1018E000851282C000120FA1D00080D7200503020C
:1018F0001371AB161516EB7003021371758220126B
:101900000F8780EE8A82120F8702137185138285FA
:10191000148322AA82BA0A0810990280FB75990DD5
:1019200010990280FB8A9922FFA8811818121CB610
:10193000121C98E96401F58222FFA8811818121C74
:10194000B6D2D133E6400730E70B7582002220E79C
:101950000675820122C2D1121C98E97003F5822219
:1019600020D101B3E433F58222C2D5E58330E70DFF
:10197000D2D5E4C39582F582E49583F583E55530AD
:10198000E70DB2D5E4C39554F554E49555F55512D9
:101990001AD430D50BE4C39582F582E49583F583A0
:1019A00022AA82AB83ACF0FD8A578B588C598D5A92
:1019B00085575F855860855961855A62AE61E562D9
:1019C000A2E7CE33CE33CE540130E00244FE33954D
:1019D000E08E5BE4F55CF55DF55EE55B2482F55B2E
:1019E000E55C34FFF55CE55D34FFF55DE55E34FFF5
:1019F000F55EAC54AD55AA56AE5BAF5C8C828D8360
:101A00008AF0EE120D17A3EF120D17AA5FAB6074E8
:101A10007F5561FC74805562FD8A578B588C598DB7
:101A20005A743F455AFD8A578B588C598D5A8557A1
:101A3000828558838559F0E55A22AA82AB83ACF09F
:101A4000FD8A568B578C588D59AA58E559A2E7CA7A
:101A500033CA33CA540130E00244FE3395E08A5A57
:101A6000755B00755C00755D00AE54E555FF339500
:101A7000E0FAFBEE255AF55AEF355BF55BEA355C8B
:101A8000F55CEB355DF55DAA5A7B008A60EB54018D
:101A9000A2E0C56013C56013C560F561755F007590
:101AA0005E00AE56AF57747F5558FA74805559FB97
:101AB000E55E4206E55F4207E5604202E5614203FA
:101AC0008E568F578A588B598556828557838558ED
:101AD000F0E559227A10E4FBFCE58225E0F582E589
:101AE0008333F583EB33FBEC33FCEB9554F5F0ECEF
:101AF00095554006FCABF0438201DADD227F9E1251
:101B00001CE130D103020E9BC3EF9582500974FF94
:101B1000F5F0F583F582227900120F4489828A83D9
:101B20008BF0EC22FCABF0AA83A982749EF582C2F2
:101B3000D1EC30E716D2D1E9F42401F9EAF434000B
:101B4000FAEBF43400FBECF43400FC120EC9020E84
:101B50007AC0E0F84582458345F07009F5F0FBFC5A
:101B6000FDFE021C1FE823A2F792E0F8A982AA83D7
:101B7000D2F7ABF07C007E07C3749798404074FFA7
:101B80002EFE740A89F0A4F985F082740A8AF0A402
:101B9000FA85F083740A8BF0A4FB740529F9EA3501
:101BA00082FAEB3583FB740035F0FCC3EC13FCEBDD
:101BB00013FBEA13FAE913F908EC70EF80BAE8C3F3
:101BC000947FF88B838EF0E4FBFCFDFEFF08C3E9F5
:101BD00033F9EA33FAE58333F583EB3BD4FBEC3C92
:101BE000D4FCED3DD4FDEE3ED4FEEF3FD4FF602D9E
:101BF00005F074052BD4FBE43CD4FCE43DD4FDE4B7
:101C00003ED4FEE43FD4FF758204C3EF13FFEE130E
:101C1000FEED13FDEC13FCEB13FBD582EDD8AF7892
:101C200063D0E020E704762B8002762D087906E762
:101C3000C4540F4430F608B90603762E08E7540F53
:101C40004430F60819B902E7764508E5F020E704C4
:101C5000762B8004762DF4040875F00A844430F65F
:101C600008E5F04430F608E4F690006375F0402291
:101C7000AA82AB83ACF07D007E008A828B838CF0DD
:101C80001209AEFFA3AA82AB83EF60070DBD00EA85
:101C90000E80E78D828E83227901AA82E68F82B53B
:101CA000821318E6B5F00E18E6B5830918E68A82A5
:101CB000B58202790022B4800FE5F0700AE58370E6
:101CC00006E58270027F00EFB6801518B600101886
:101CD000B6000B18B60006080808760022080808A7
:101CE00022AA82AB83A2F73392D16002D2F7F582A7
:101CF000ACF0220000000000000000000000000026
:00000001FF
