:100000000200037581741201AAE582600302006F89
:10001000780079007A007B007C007D00EC4D601C4C
:1000200088828983E493A3A882A9838A828B83F040
:10003000A3AA82AB831CBCFFE31D80E07582007520
:1000400083007CA27D00EC4D600AE4F0A31CBCFFA1
:10005000F51D80F27582007583007C007D00EC4DFB
:10006000600AE4F0A31CBCFFF51D80F21201A91286
:10007000141380FE503A20533D252E326620523D07
:10008000252E326600523A20533D252E32662052EC
:100090003D252E326600703D252E316620663D25B9
:1000A0002E32666B487A00506861736F72003C2094
:1000B0002020204D6574657220202020203E0031D4
:1000C0000050005200533D252E326620523D252E11
:1000D00032660032003300340035001B5B324A00C8
:1000E000506861736F72204D6561757372656D65DF
:1000F0006E740A54657374207369676E616C3A207C
:1001000050312E3520616E64205265666572656ED1
:100110006365207369676E616C3A2050322E330A32
:1001200046696C653A2025730A436F6D70696C658A
:10013000643A2025732C2025730A0A00433A5C5543
:10014000736572735C776F6E67685C4F6E6544723F
:10015000697665202D205542435C5542435C5965C4
:10016000617220325C454C4543203239315C454C4C
:1001700045432D3239315C4C6162355C4C616235EE
:100180002E63004D6172202036203230323500302F
:10019000383A32323A30380025662C25662C2566EE
:1001A0002C25662C25660D0A002275A7007597DEA2
:1001B0007597AD75FF8075EF0675A71075C1207531
:1001C000A70075A90075A900E5A930E7FB75A9038B
:1001D00075A903E5A930E7FB43A41075E10175E2B9
:1001E0000075E340759810758DE6858D8B53890FEA
:1001F000438920D28ED29975820022AA82438E40F2
:100200007592B87593FF8592948593957591047B4B
:1002100000C3EB9A500BE59130E7FB53917F0B80C5
:10022000F075910022AA82AB837C007D00C3EC9A1A
:10023000ED9B502B7E00BE0400501D7582FAC0025B
:10024000C003C004C005C0061201FBD006D005D013
:1002500004D003D0020E80DE0CBC00D10D80CE2273
:10026000AA82AB83C374FF9AE49B50187582FFC0C7
:1002700002C0031201FBD003D002EA2401FAEB34DE
:10028000FFFB80E0EA4B60058A820201FB22538972
:10029000F0438901C28C22D2A07582281201FBC2D0
:1002A000A022AA828AE0A2E79290A2E69291A2E519
:1002B0009292A2E49293C0021202977582281201D0
:1002C000FBD0028AE0A2E39290A2E29291A2E19294
:1002D00092A2E09293020297AA82D2978A82120295
:1002E000A2900002020225AA82C2978A821202A26A
:1002F000900005020225C2A090001412022575820A
:10030000331202E77582331202E77582321202E776
:100310007582281202E775820C1202E775820112BB
:1003200002E7900014020225AA82AB83ACF07401AC
:10033000B5220A90007574802523F080089000751E
:1003400074C02523F0900075E0F582C002C003C0A0
:10035000041202E7900005120225D004D003D00257
:100360007D007E00ED2AFFEE3BF88C018F828883B2
:1003700089F0121B3EFF60208F82C002C003C004C0
:10038000C005C0061202D8D006D005D004D003D0D4
:10039000020DBD00CF0E80CC3000248D028E03C331
:1003A000EA9410EB648094805015758220C002C0DE
:1003B000031202D8D003D0020ABA00E30B80E02275
:1003C000AA8274075AF5F005F07401800225E0D581
:1003D000F0FBFBEAC4540FFA24FC4013EA2A2A90EB
:1003E00003E3730203EF0203F802040102040A901C
:1003F0000076EB5580F08019900076EB5590F080F8
:1004000010900076EB55A0F08007900076EB55B089
:10041000F0900076E024FF920122AA82C00212032B
:10042000C0D002402E90000AC002120225D0028ADB
:1004300082C0021203C0E433D00260F390000AC00D
:1004400002120225D0028A821203C0E433FABA01F2
:1004500002D322C322AA82C0021203C0D002405695
:10046000900014C002120225D0028A82C002120338
:10047000C0E433FBD002BB0102C3227B007C008AB4
:1004800082C002C003C0041203C0D004D003D00253
:100490004024900014C002C003C004120225D004FE
:1004A000D003D002740A2BFBE43CFCC3EB94F4ECC5
:1004B000940140CBD322C322AA8274075AF5F005D7
:1004C000F07401800225E0D5F0FBF4FBEAC4540F80
:1004D000FA24FC4022EA2A2A9004DC730204E8028F
:1004E00004EC0204F00204F4EB52A422EB52A52225
:1004F000EB52A622EB529C22AA8274075AF5F00511
:10050000F07401800225E0D5F0FBFBEAC4540FFA39
:1005100024FC4022EA2A2A90051B730205270205C3
:100520002B02052F020533EB42A422EB42A522EB5E
:1005300042A622EB429C22AA8274075AF5F005F0EB
:100540007401800225E0D5F0FBFBEAC4540FFA24C5
:10055000FC4022EA2A2A90055A7302056602056ABF
:1005600002056E020572EB428022EB429022EB42C2
:10057000A022EB42B022AA8274075AF5F005F0746B
:1005800001800225E0D5F0FBF4FBEAC4540FFA2405
:10059000FC4022EA2A2A90059A730205A60205AABF
:1005A0000205AE0205B2EB528022EB529022EB52D2
:1005B000A022EB52B02275A700C2EF75B28075BCC5
:1005C0002075B91E75E80075DF3F75B300D2EF22C4
:1005D000AA828556F005F07401800225E0D5F0FB73
:1005E000FB75A720BA0002800ABA0102800FBA0286
:1005F0001E8014EBF4FA52F1EB42D48012EBF4FAC1
:1006000052F2EB42D58008EBF4FA52F3EB42CC7590
:10061000A700228582BBC2EDD2EC30EDFD85BD8204
:1006200085BE8322120613121B5AAA82AB83ACF03A
:10063000FDC002C003C004C0059053F875F05374A8
:1006400040121BCAAA82AB83ACF0FDE58124FCF505
:1006500081E4C0E074FCC0E0747FC0E07446C0E098
:100660008A828B838CF0ED121FD1AA82AB83ACF00F
:10067000FDE58124FCF5818A828B838CF0ED228557
:10068000822485832585F026900000E4F0C28C75D5
:100690008C00758A00C28D20A6FD30A6FDD28C305C
:1006A000A60E108D0280F8900000E02401F080EF8B
:1006B00020A60E108D0280F8900000E02401F0804A
:1006C000EFC28C900000E0F582121C6DAD82AE830B
:1006D000AFF0F8C005C006C007C00090000075F07C
:1006E000807447121BCAAD82AE83AFF0F8E5812457
:1006F000FCF581858C82C005C006C007C000121CB5
:100700006DA982AA83ABF0FCC001C002C003C00483
:1007100090000075F0807443121BCAAA82AB83ACB0
:10072000F0F9E58124FCF581D000D007D006D00592
:10073000C002C003C004C0018D828E838FF0E81216
:100740001C78AA82AB83ACF0FDE58124FCF581AE78
:100750008A7F008E828F83C002C003C004C005124E
:100760001FC4AE82AF83A8F0F9D005D004D003D067
:1007700002C006C007C000C0018A828B838CF0EDE6
:10078000121C78AA82AB83ACF0FDE58124FCF581D4
:10079000C002C003C004C00590F4FC75F03274348C
:1007A000121BCA85822785832885F029F52AE581D1
:1007B00024FCF581900000E4F0758C00758A00C27D
:1007C0008D2094FD3094FDD28C30940E108D0280DB
:1007D000F8900000E02401F080EF20940E108D02CC
:1007E00080F8900000E02401F080EFC28C900000BF
:1007F000E0F582121C6DAE82AF83A8F0F9C006C08E
:1008000007C000C00190000075F0807447121BCA39
:10081000AE82AF83A8F0F9E58124FCF581858C8256
:10082000C006C007C000C001121C6DAA82AB83AC19
:10083000F0FDC002C003C004C00590000075F08048
:100840007443121BCAAA82AB83ACF0FDE58124FC81
:10085000F581D001D000D007D006C002C003C0048B
:10086000C0058E828F8388F0E9121C78AA82AB8340
:10087000ACF0FDE58124FCF581AE8A7F008E828F8D
:1008800083C002C003C004C005121FC4AE82AF8380
:10089000A8F0F9D005D004D003D002C006C007C02C
:1008A00000C0018A828B838CF0ED121C78AA82AB87
:1008B00083ACF0FDE58124FCF581C002C003C004D7
:1008C000C00590F4FC75F0327434121BCAAA82ABD6
:1008D00083ACF0FDE58124FCF581C002C003C004B7
:1008E000C005C027C028C029C02A8A828B838CF00B
:1008F000ED121FB9AE82AF83A8F0F9E58124FCF5B3
:10090000818E828F8388F0E9121B3BAE82AF83A871
:10091000F0F9C006C007C000C00190000075F0C823
:100920007442121BCAAE82AF83A8F0F9E58124FCA1
:10093000F581C027C028C029C02A8E828F8388F005
:10094000E9121FD1AE82AF83A8F0F9E58124FCF54E
:1009500081E4C0E0C0E07470C0E07441C0E08E8209
:100960008F8388F0E9121B66AE82E58124FCF58155
:10097000D005D004D003D002EE6040758201C002E1
:10098000C003C004C005120537900064120225752B
:10099000820112057690006412022575820112050B
:1009A000379000641202257582011205769000646A
:1009B000120225D005D004D003D0028524828525DB
:1009C000838526F0E527121F0BA3E528121F0BA332
:1009D000E529121F0BA3E52A121F0B74042524FE20
:1009E000E43525FFA8268E828F8388F0EA121F0B3C
:1009F000A3EB121F0BA3EC121F0BA3ED021F0BAAFC
:100A000082AB83ACF0FDC002C003C004C0059024DB
:100A10000075F0747449121BCAAA82AB83ACF0FD56
:100A2000E58124FCF581E4C0E0C0E07480C0E0749E
:100A300040C0E08A828B838CF0ED121FD1AA82AB7A
:100A400083ACF0FDE58124FCF5818A828B838CF0F8
:100A5000ED121B9685822E85832F20A6FD30A6FDE4
:100A6000852E82852F83120260AC2BAD2CAE2D75A6
:100A70008210C004C005C006120624AF82A883A954
:100A8000F0FAD006D005D0048C828D838EF0EF1260
:100A90001F0BA3E8121F0BA3E9121F0BA3EA121FDF
:100AA0000B2094FD3094FD852E82852F83C004C0D9
:100AB00005C006120260D006D005D00474042CFCD8
:100AC000E43DFD75820BC004C005C006120624AAD1
:100AD00082AB83AFF0F8D006D005D0048C828D8332
:100AE0008EF0EA121F0BA3EB121F0BA3EF121F0BCA
:100AF000A3E8021F0B758C00758A00C28CC28D9012
:100B00000000E4F020A6FD30A6FDD28C30940E103B
:100B10008D0280F8900000E02401F080EF20940E18
:100B2000108D0280F8900000E02401F080EFC28C6C
:100B3000900000E0F582121C6DAA82AB83ACF0FD40
:100B4000C002C003C004C00590000075F080744767
:100B5000121BCAAA82AB83ACF0FDE58124FCF581AF
:100B6000858C82C002C003C004C005121C6DAE8219
:100B7000AF83A8F0F9C006C007C000C00190000014
:100B800075F0807443121BCAAE82AF83A8F0F9E5FA
:100B90008124FCF581D005D004D003D002C006C06A
:100BA00007C000C0018A828B838CF0ED121C78AAEA
:100BB00082AB83ACF0FDE58124FCF581AE8A7F0039
:100BC0008E828F83C002C003C004C005121FC4AE52
:100BD00082AF83A8F0F9D005D004D003D002C006BC
:100BE000C007C000C0018A828B838CF0ED121C7894
:100BF000AA82AB83ACF0FDE58124FCF581C002C084
:100C000003C004C00590F4FC75F0327434121BCAA2
:100C1000AA82AB83ACF0FDE58124FCF5818A828B4E
:100C2000838CF0ED22AA82E583FB30E70122C374B6
:100C3000069AE464808BF063F08095F0500122EA1C
:100C40002A2A900C4673020C5B020E15020E370224
:100C50000F6302108F0211BB0212E7E530453160CD
:100C600060900001E0FAA3E0FBA3E0FCA3E0FD90AC
:100C70000005E0FEA3E0FFA3E0F8A3E0F9C002C096
:100C800003C004C005C006C007C000C0017474C022
:100C9000E07400C0E07480C0E07477C0E07400C00D
:100CA000E0E4C0E0121F73E58124F2F581752201B2
:100CB000752300D20090007775F000120328020D12
:100CC00098900001E0FAA3E0FBA3E0FCA3E0FD9014
:100CD0000000E4F5F07440C002C003C004C0051277
:100CE0001D07AE82AF83A8F0F9D005D004D003D0A1
:100CF00002C006C007C000C0018A828B838CF0ED61
:100D0000121FD1AA82AB83ACF0FDE58124FCF581F2
:100D1000900005E0F532A3E0F533A3E0F534A3E05D
:100D2000F535900000E4F5F07440C002C003C00443
:100D3000C005121D07AE82AF83A8F0F9C006C00738
:100D4000C000C0018532828533838534F0E53512D9
:100D50001FD1AE82AF83A8F0F9E58124FCF581C0F4
:100D600006C007C000C0017485C0E07400C0E07414
:100D700080C0E07477C0E07400C0E0E4C0E0121FFF
:100D800073E58124F2F581752201752300D200906C
:100D9000007775F00012032890000DE0FAA3E0FB45
:100DA000A3E0FCA3E0FDE4C0E0C0E0747AC0E0741E
:100DB00044C0E08A828B838CF0ED121FD1AA82ABF3
:100DC00083ACF0FDE58124FCF581C002C003C004C2
:100DD000C005900009E0C0E0A3E0C0E0A3E0C0E0EF
:100DE000A3E0C0E07496C0E07400C0E07480C0E08E
:100DF0007477C0E07400C0E0E4C0E0121F73E581C6
:100E000024F2F581752202752300D20090007775D7
:100E1000F000020328752201752304D2009000A778
:100E200075F080120328752202752300D20090000D
:100E3000AE75F080020328752201752300C2009070
:100E400000BF75F080120328900061E0FAA3E0FB78
:100E5000A3E0FCA3E0FDEA4B4C8DF0C2F745F06047
:100E600013752201752301C2009000C175F0801234
:100E700003288011752201752301C2009000C375FB
:100E8000F080120328900011E0FAA3E0FBA3E0FC3D
:100E9000A3E0FD900025E0FEA3E0FFA3E0F8A3E0BF
:100EA000F9C002C003C004C005C006C007C000C02E
:100EB0000174C5C0E07400C0E07480C0E07477C005
:100EC000E07400C0E0E4C0E0121F73E58124F2F595
:100ED00081752201752303D20090007775F000120E
:100EE000032890004DE0FAA3E0FBA3E0FCA3E0FDA3
:100EF000E4C0E0C0E0747AC0E07444C0E08A828B51
:100F0000838CF0ED121FD1AA82AB83ACF0FDE5819A
:100F100024FCF581900039E0FEA3E0FFA3E0F8A3F4
:100F2000E0F9C002C003C004C005C006C007C0008D
:100F3000C0017496C0E07400C0E07480C0E07477B3
:100F4000C0E07400C0E0E4C0E0121F73E58124F249
:100F5000F581752202752300D20090007775F000AC
:100F6000020328752201752300C2009000D375F09A
:100F700080120328900065E0FAA3E0FBA3E0FCA345
:100F8000E0FDEA4B4C8DF0C2F745F060137522018D
:100F9000752301C2009000C175F0801203288011F2
:100FA000752201752301C2009000C375F080120301
:100FB00028900015E0FAA3E0FBA3E0FCA3E0FD907D
:100FC0000029E0FEA3E0FFA3E0F8A3E0F9C002C01F
:100FD00003C004C005C006C007C000C00174C5C07E
:100FE000E07400C0E07480C0E07477C0E07400C0BA
:100FF000E0E4C0E0121F73E58124F2F5817522015F
:10100000752303D20090007775F00012032890003A
:1010100051E0FAA3E0FBA3E0FCA3E0FDE4C0E0C0E4
:10102000E0747AC0E07444C0E08A828B838CF0ED77
:10103000121FD1AA82AB83ACF0FDE58124FCF581BF
:1010400090003DE0FEA3E0FFA3E0F8A3E0F9C002BA
:10105000C003C004C005C006C007C000C00174962C
:10106000C0E07400C0E07480C0E07477C0E0740039
:10107000C0E0E4C0E0121F73E58124F2F58175221F
:1010800002752300D20090007775F00002032875E6
:101090002201752300C2009000D575F0801203284C
:1010A000900069E0FAA3E0FBA3E0FCA3E0FDEA4BBB
:1010B0004C8DF0C2F745F06013752201752301C213
:1010C000009000C175F0801203288011752201750F
:1010D0002301C2009000C375F0801203289000190C
:1010E000E0FAA3E0FBA3E0FCA3E0FD90002DE0FE0E
:1010F000A3E0FFA3E0F8A3E0F9C002C003C004C06E
:1011000005C006C007C000C00174C5C0E07400C0BF
:10111000E07480C0E07477C0E07400C0E0E4C0E038
:10112000121F73E58124F2F581752201752303D224
:101130000090007775F000120328900055E0FAA3A4
:10114000E0FBA3E0FCA3E0FDE4C0E0C0E0747AC0F3
:10115000E07444C0E08A828B838CF0ED121FD1AA28
:1011600082AB83ACF0FDE58124FCF581900041E089
:10117000FEA3E0FFA3E0F8A3E0F9C002C003C004AF
:10118000C005C006C007C000C0017496C0E074006E
:10119000C0E07480C0E07477C0E07400C0E0E4C0D8
:1011A000E0121F73E58124F2F58175220275230098
:1011B000D20090007775F000020328752201752394
:1011C00000C2009000D775F08012032890006DE0F7
:1011D000FAA3E0FBA3E0FCA3E0FDEA4B4C8DF0C2D8
:1011E000F745F06013752201752301C2009000C11C
:1011F00075F0801203288011752201752301C20049
:101200009000C375F08012032890001DE0FAA3E05F
:10121000FBA3E0FCA3E0FD900031E0FEA3E0FFA310
:10122000E0F8A3E0F9C002C003C004C005C006C0D6
:1012300007C000C00174C5C0E07400C0E07480C085
:10124000E07477C0E07400C0E0E4C0E0121F73E512
:101250008124F2F581752201752303D20090007775
:1012600075F000120328900059E0FAA3E0FBA3E018
:10127000FCA3E0FDE4C0E0C0E0747AC0E07444C0C8
:10128000E08A828B838CF0ED121FD1AA82AB83ACF3
:10129000F0FDE58124FCF581900045E0FEA3E0FF30
:1012A000A3E0F8A3E0F9C002C003C004C005C00673
:1012B000C007C000C0017496C0E07400C0E0748034
:1012C000C0E07477C0E07400C0E0E4C0E0121F73B7
:1012D000E58124F2F581752202752300D200900089
:1012E0007775F000020328752201752300C2009073
:1012F00000D975F080120328900071E0FAA3E0FB9A
:10130000A3E0FCA3E0FDEA4B4C8DF0C2F745F06092
:1013100013752201752301C2009000C175F080127F
:1013200003288011752201752301C2009000C37546
:10133000F080120328900021E0FAA3E0FBA3E0FC78
:10134000A3E0FD900035E0FEA3E0FFA3E0F8A3E0FA
:10135000F9C002C003C004C005C006C007C000C079
:101360000174C5C0E07400C0E07480C0E07477C050
:10137000E07400C0E0E4C0E0121F73E58124F2F5E0
:1013800081752201752303D20090007775F0001259
:10139000032890005DE0FAA3E0FBA3E0FCA3E0FDDE
:1013A000E4C0E0C0E0747AC0E07444C0E08A828B9C
:1013B000838CF0ED121FD1AA82AB83ACF0FDE581E6
:1013C00024FCF581900049E0FEA3E0FFA3E0F8A330
:1013D000E0F9C002C003C004C005C006C007C000D9
:1013E000C0017496C0E07400C0E07480C0E07477FF
:1013F000C0E07400C0E0E4C0E0121F73E58124F295
:10140000F581752202752300D20090007775F000F7
:10141000020328900090E4F0A3F090009E7401F085
:10142000E4A3F09000A0E4F0A3F012028E1202F602
:101430007556017582021205D07556027582021228
:1014400005D01205B67582311204B87582251204D2
:10145000B87582371204B87582011204F89001F44D
:1014600012022574DBC0E07400C0E07480C0E0129A
:101470001CE6158115811581748FC0E07401C0E0F0
:101480007480C0E07483C0E07401C0E07480C0E088
:10149000743CC0E07401C0E07480C0E074E0C0E05F
:1014A0007400C0E07480C0E0121CE6E58124F4F50D
:1014B0008175820112057690009275F00012067F08
:1014C000900092E0F53EA3E0F53FA3E0F540A3E0F5
:1014D000F541752B01752C00752D00853E82853FE9
:1014E000838540F0E5411209FF120AF585823685B1
:1014F000833785F038F53990009AE536F0A3E53763
:10150000F0A3E538F0A3E539F0900001E0F53AA347
:10151000E0F53BA3E0F53CA3E0F53D900000E4F5E9
:10152000F07440121D07AE82AF83A8F0F9C006C068
:1015300007C000C001853A82853B83853CF0E53DCC
:10154000121FD1AE82AF83A8F0F9E58124FCF581AA
:10155000900088EEF0A3EFF0A3E8F0A3E9F090008C
:1015600005E0F53AA3E0F53BA3E0F53CA3E0F53D4B
:10157000900000E4F5F07440121D07AE82AF83A81E
:10158000F0F9C006C007C000C001853A82853B83E0
:10159000853CF0E53D121FD1AE82AF83A8F0F9E59E
:1015A0008124FCF58190008CEEF0A3EFF0A3E8F02D
:1015B000A3E9F0E4C0E0C0E0C0E07440C0E0853ED4
:1015C00082853F838540F0E541121FD1AE82AF8313
:1015D000A8F0F9E58124FCF581C006C007C000C071
:1015E000018536828537838538F0E539121B66AE72
:1015F00082E58124FCF581EE6031C03EC03FC040F1
:10160000C0418536828537838538F0E539121FB9A8
:10161000AE82AF83A8F0F9E58124FCF58190009AB1
:10162000EEF0A3EFF0A3E8F0A3E9F090009AE0C099
:10163000E0A3E0C0E0A3E0C0E0A3E0C0E0900000D1
:1016400075F0B474C3121BCAAE82AF83A8F0F9E57B
:101650008124FCF581C03EC03FC040C0418E828FD6
:101660008388F0E9121FD1AE82AF83A8F0F9E5813B
:1016700024FCF581900009EEF0A3EFF0A3E8F0A3BD
:10168000E9F0C03EC03FC040C04190000075F0800E
:10169000743F121FD1AE82AF83A8F0F9E58124FC1C
:1016A000F58190000DEEF0A3EFF0A3E8F0A3E9F0D0
:1016B00075823112041A400302174890009EE0FE22
:1016C000A3E0FF4E7014900090E0F8A3E0F99000C2
:1016D00090E8F4F0E9F4A3F08062BE010CBF0009C9
:1016E00090009EE4F0A3F08053BE020EBF000B906A
:1016F000009E7401F0E4A3F08042BE030EBF000B15
:1017000090009E7402F0E4A3F08031BE040EBF008E
:101710000B90009E7403F0E4A3F08020BE050EBF82
:10172000000B90009E7404F0E4A3F0800FBE060C42
:10173000BF000990009E7405F0E4A3F075820112C9
:1017400002E790000512022575822512041A5075D1
:1017500090009EE0FEA3E0FF4E700B90009E74018F
:10176000F0E4A3F08053BE010EBF000B90009E7406
:1017700002F0E4A3F08042BE020EBF000B90009E78
:101780007403F0E4A3F08031BE030EBF000B9000A1
:101790009E7404F0E4A3F08020BE040EBF000B9002
:1017A000009E7405F0E4A3F0800FBE050CBF000995
:1017B00090009E7406F0E4A3F07582011202E79097
:1017C000000512022575823712041A4003021AA47A
:1017D00090009EE0FEA3E0FF4E60030219E290003D
:1017E00090E0F542A3E0F543E5424543606E90008A
:1017F000A0E0F8A3E0883AC53A25E0C53A33C53AF7
:1018000025E0C53A33F53BE53A2411F536E53B349E
:1018100000F537900001E0F8A3E0F9A3E0FAA3E0B7
:10182000FB853682853783E8F0A3E9F0A3EAF0A3CD
:10183000EBF0E53A2425FAE53B3400FB900005E0A7
:10184000FCA3E0FDA3E0F8A3E0F98A828B83ECF02F
:10185000A3EDF0A3E8F0A3E9F002193A9000A0E0AC
:10186000FAA3E0CA25E0CA33CA25E0CA33FBEA245A
:1018700011F53AEB3400F53B900001E0F536A3E0BA
:10188000F537A3E0F538A3E0F539900000E4F5F072
:101890007440C002C003121D07AC82AD83A8F0F9EA
:1018A000C004C005C000C0018536828537838538F5
:1018B000F0E539121FD1AC82AD83A8F0F9E581249F
:1018C000FCF581D003D002853A82853B83ECF0A3FE
:1018D000EDF0A3E8F0A3E9F0EA2425F53AEB3400B3
:1018E000F53B900005E0F536A3E0F537A3E0F538C9
:1018F000A3E0F539900000E4F5F07440121D07AA4A
:1019000082AB83ACF0FDC002C003C004C0058536C5
:10191000828537838538F0E539121FD1AA82AB83DF
:10192000ACF0FDE58124FCF581853A82853B83EAB4
:10193000F0A3EBF0A3ECF0A3EDF09000A0E0F53AFB
:10194000A3E0F53BAC3ACC25E0CC33CC25E0CC335E
:10195000FDEC2439F536ED3400F537900009E0FA56
:10196000A3E0FBA3E0F8A3E0F9853682853783EA9C
:10197000F0A3EBF0A3E8F0A3E9F0EC244DF536ED8D
:101980003400F53790000DE0F8A3E0F9A3E0FAA3E6
:10199000E0FB853682853783E8F0A3E9F0A3EAF01F
:1019A000A3EBF0EC2461FCED3400FD85428285431D
:1019B00083C004C005121FC4AA82AB83A8F0F9D06B
:1019C00005D0048C828D83EAF0A3EBF0A3E8F0A3AA
:1019D000E9F09000A07401253AF0E4353BA3F00251
:1019E0001AA4BE0205BF00028023BE0305BF000289
:1019F000801BBE0405BF00028013BE0505BF0002A8
:101A0000800BBE0605BF00028003021AA475820186
:101A10001205377A007B00C3EA9405EB648094805A
:101A2000506F8A04EBCC25E0CC33CC25E0CC33FDE1
:101A3000EC2411F582ED3400F583E4F0A3F0A3F07B
:101A4000A3F0EC2425F582ED3400F583E4F0A3F057
:101A5000A3F0A3F0EC2439F582ED3400F583E4F033
:101A6000A3F0A3F0A3F0EC244DF582ED3400F58350
:101A7000E4F0A3F0A3F0A3F0EC2461F582ED3400D0
:101A8000F583E4F0A3F0A3F0A3F00ABA00890B8079
:101A9000869000A0E4F0A3F07582011202E79000A6
:101AA0000512022590009EE0FAA3E0FB900090E072
:101AB000F530A3E0F5318A828B83120C2590000566
:101AC000E0FAA3E0FBA3E0FCA3E0FD900001E0F559
:101AD0003AA3E0F53BA3E0F53CA3E0F53D9000968A
:101AE000E0FEA3E0FFA3E0F8A3E0F9900009E0C066
:101AF000E0A3E0C0E0A3E0C0E0A3E0C0E0C002C01B
:101B000003C004C005C03AC03BC03CC03DC006C0D5
:101B100007C000C001C03EC03FC040C0417498C073
:101B2000E07401C0E07480C0E0121CE6E58124E9A5
:101B3000F5819000641202250214B1C2E72220F759
:101B40001430F6148883A88220F507E6A8837583ED
:101B50000022E280F7E49322E022E4AC83AB82FA35
:101B6000F9748E0220F9FFA8811818122121D2D110
:101B700033E6400730E70B7582012220E7067582C5
:101B80000022C2D1122103E97003F5822230D10173
:101B9000B3E433F5822212214C700AE58245834575
:101BA000F0700122E430D112F4700BE5F0F470060D
:101BB000E58330E7012290800022700AE5F070068C
:101BC000E58320E70122907FFF22122229BC000337
:101BD0000221C8EF60FA30D502B2D1E583B4FF0329
:101BE0000221DEE582B4FF030221DE2583400724C3
:101BF00082400B0221C824831450030221DEF582A7
:101C0000EA8DF0A4A8F0EA8EF0A428F8E435F0F903
:101C1000EB8DF0A428E935F0F9E433CA8FF0A4295C
:101C2000F9EA35F0FAEBF88EF0A429F9EA35F0FA82
:101C3000E433FBEC8DF0A429F9EA35F0FAE43BFB40
:101C4000E88FF0A42AFAEB35F0FBE433CCFD8EF0FC
:101C5000A42AFAEB35F0FBE43CFCED8FF0A42BFB5F
:101C6000EC35F0FC20E7031221F60221A7E4AC8258
:101C7000FBFAF974860220F91222297900E583B56E
:101C80008202800D5003122257E583C395821222EF
:101C900071E5D0C465D020E117EA2DFAEB3EFBECEC
:101CA0003FFC50097401122271EC4480FC0221A710
:101CB000C3EA9DFAEB9EFBEC9FFC500FC3E499F93D
:101CC000E49AFAE49BFBE49CFCB2D11221F60221D7
:101CD000A7022C4085825285835385F05485125586
:101CE000901CD1022693C008858108E50824FBF5E5
:101CF00055E50824FBF88652088653088654901C44
:101D0000D1122693D00822AA82AB83ACF0FDEA4B15
:101D10004C8DF0C2F745F070088A828B838CF0ED11
:101D200022C002C003C004C005E4C0E0C0E074806B
:101D3000C0E0743FC0E08A828B838CF0ED122C559A
:101D4000AE82E58124FCF581D005D004D003D00219
:101D5000EE600990000075F080743F22C002C0035D
:101D6000C004C005E4C0E0C0E0C0E0C0E08A828BEF
:101D7000838CF0ED122C66AE82E58124FCF581D0D7
:101D800005D004D003D002EE600D750921E4F50AF8
:101D9000900000E4F5F0227556177557007558400D
:101DA0008A828B838CF0ED122CCE8582138583146E
:101DB00085F015F516C013C014C015C0169014BADE
:101DC00075F017743F121BCAAE82AF83A8F0F9E515
:101DD0008124FCF58174A8C0E074A9C0E074D5C06A
:101DE000E0743EC0E08E828F8388F0E9121C78AEEA
:101DF00082AF83A8F0F9E58124FCF581C006C00715
:101E0000C000C001C006C007C000C00185138285A4
:101E100014838515F0E516121FD1AA82AB83ACF0AE
:101E2000FDE58124FCF581D001D000D007D006C0AB
:101E300002C003C004C0058E828F8388F0E9121CA3
:101E400078AE82AF83A8F0F9E58124FCF581755660
:101E5000FE7557FF8E828F8388F0E9C006C007C0E9
:101E600000C001122D6785821985831A85F01BF544
:101E70001C8513828514838515F0E516121FD1AADF
:101E800082AB83ACF0FDE58124FCF581C002C00388
:101E9000C004C005851982851A83851BF0E51C12D4
:101EA0001C78AE82AF83A8F0F9E58124FCF581E5CA
:101EB0001730E028C006C007C000C0019004F375C9
:101EC000F035743F121BCAAE82AF83A8F0F9E581EA
:101ED00024FCF5810517E4B517020518755602E4D0
:101EE000F557851782851883C006C007C000C0015A
:101EF000122C96858256858357D001D000D007D00A
:101F0000068E828F8388F0E9022D6720F71030F665
:101F1000118883A88220F507F6A88375830022F232
:101F200080F7F022AA82AB0BAC0CAD0D8B828C83B8
:101F30008DF0EA121F0B050BE4B50B02050C228590
:101F4000820B85830C85F00D850E52850F5385100D
:101F500054851155901F24122693AA82AB83AC0B93
:101F6000AD0CAE0D8C828D838EF0E4121F0B8A8235
:101F70008B8322C008858108E50824F8F555E5081B
:101F800024FBF8860B08860C08860DE50824F8F873
:101F90008652088653088654901F24122693AA82DC
:101FA000AB83AC0BAD0CAE0D8C828D838EF0E41246
:101FB0001F0B8A828B83D00822A8811818C6B2E72B
:101FC000C6021C78AC83AB827A007900748E022E34
:101FD0003312222930D502B2D1BF0009BC0003025E
:101FE00021EB0221DEBC00030221C8E583B4FF0B14
:101FF000E582B4FF030221EB0221C8E582B4FF03AE
:102000000221DEC395835007247F400B0221C824A0
:10201000801450030221DEC0E0E4CCCBCAF98D5617
:102020008E578F58EF54F0C4F5597583068559F0D3
:10203000EB84F582E9C4F9EAC4FAEBC4FBEC540F73
:10204000C47803D6FC18EBD6FB18EAD6FA8582F0E2
:10205000EDA4A8F0FD8582F0EEA428FEE435F0F8AA
:102060008582F0EFA428FFE435F0F8E99DF9EA9EB7
:10207000FAEB9FFBEC98FCAD56AE57AF5830E7102B
:102080001582E92DF9EA3EFAEB3FFBE43CFC80EDDA
:10209000C082D58398C3E933F9EA33FAEB33FBEC1A
:1020A00033FCC3E99DEA9EEB9FEC9400B3E413F983
:1020B000D002D0E0C44AFAD003D0E0C44BFBD00435
:1020C000D0E0F5F0540FC44CFCD082158230F40FF0
:1020D000D3EC13FCEB13FBEA13FAE913F90582E9DD
:1020E00030E70A74012AFAE43BFBE43CFC0221BF1E
:1020F000FCABF0AA83A982749EC2D1F5821221F6AC
:102100000221A77901AA82E68F82B5821318E6B56B
:10211000F00E18E6B5830918E68A82B582027900C6
:1021200022B4800FE5F0700AE5837006E582700244
:102130007F00EFB6801518B6001018B6000B18B661
:10214000000608080876002208080822122E57C345
:10215000749E95824039790012227130D126E9F4BB
:102160002401F582EAF43400F583EBF43400F5F051
:10217000ECF43400700AE582458345F0700122E4F6
:1021800030E70F22EC20E71489828A838BF022301B
:10219000D10AE4F582F583F5F074802274FFF582AC
:1021A000F583F5F0747F22B98003EA13B34010EA97
:1021B0002401FAE43BFBE43CFC50047C800582BC37
:1021C000000EBB000BBA0008E4F5F0F583F582229F
:1021D000A2D1E582138CF092F78B838A8222E4F5F8
:1021E00083F58275F080F4A2D11322E4F583F582A1
:1021F00075F0C0747F227804EC7011E58224F850E9
:102200000AF582E4C9CACBFCD8EF22EC782005821B
:1022100020E713D5820122C3E933F9EA33FAEB331D
:10222000FBEC33FCD8EA158222AA82AB83A2F733F7
:1022300092D16002D2F7F582ACF0E58124F9F8E69C
:10224000FD08E6FE0886F008E6A2F73392D56002A4
:10225000D2F7F583AFF022E582C583F582A2D133B0
:10226000A2D592D11392D5ECCFFCEBCEFBEACDFAFE
:10227000226040F82582500274FFF582E824F8506D
:102280001ECCCBCAF9E4CC24F85014CBCAF9E4CB69
:1022900024F8500BCAF9E4CA24F850037900222428
:1022A000086010F8C3EC13FCEB13FBEA13FAE91314
:1022B000F9D8F122AA8274C5C0E07422C0E0C044FB
:1022C000C0458A8222054BE4B54B02054C22AA8206
:1022D00074302AFA24C6500A74072AFA30020343DB
:1022E00002208A820222B4E582FAC4540FF582C029
:1022F000021222CED002740F5AF5820222CEAA46D2
:10230000AB47AC48AD49AE4A755120EE2EFEED23E9
:102310005401FF4206EA2AFAEB33FBEC33FCED33BF
:10232000FDC3EE954D4008EEC3954DFE430201D529
:1023300051D98A468B478C488D498E4A227871E65E
:1023400024D075F00AA4FA7872E624D02AFA7870BC
:102350008603BB2D04C3E49AFA754D01C3E464807F
:102360008AF063F08095F050297551038A0374F662
:102370002551401C054DE551142465F8E5512465AF
:10238000F98704A604772E1BEBFA6004055180DE62
:102390008B02EA30E70D786686037867A6037866D5
:1023A000762E0AE54F600AE54F04FB254DF54D807A
:1023B00005300D02054D78658603E4BB2D0104FB55
:1023C0007006200803300902054D300603022484FC
:1023D000300757EB600C75822DC0021222B4D00278
:1023E000801C30080C75822BC0021222B4D00280EF
:1023F0000D30090A758220C0021222B4D00278661C
:102400008604BC2E0C758230C0021222B4D0021594
:102410004EAC4E154EC3E54D9C40030224C8758258
:1024200030C0021222B4D00280E7AC4E154EC3E594
:102430004D9C500C758220C0021222B4D00280EA5A
:1024400078658604BC2D0C75822DC0021222B4D092
:1024500002801C30080C75822BC0021222B4D002FC
:10246000800D30090A758220C0021222B4D0027891
:10247000668604BC2E52758230C0021222B4D0028D
:10248000154E8044EB600E75822DC0021222B4D02E
:1024900002154E802030080E75822BC0021222B425
:1024A000D002154E800F30090C758220C002122216
:1024B000B4D002154E78668603BB2E0C758230C0F0
:1024C000021222B4D002154E755101C20FE55124FB
:1024D00065F88603BB4503022585BB2E348A03C3FA
:1024E000E464808BF063F08095F0500F758230C00B
:1024F000031222B4D0031B8B0280E48B02D20FE5BF
:102500004F7038200D0302258575822E1222B4806B
:1025100074300F278A03EB30E71FC3E46480854FD4
:10252000F063F08095F0500C758230C0031222B435
:10253000D003154F0B8B0280DD8B02300F0EC3E4EE
:102540006480854FF063F08095F05021E55124655B
:10255000F886038B82C0021222B4D002300F0EE53F
:10256000512465F88603BB2E028002154F154EC319
:10257000E46480854FF063F08095F04003200F0500
:1025800005510224CDC3E46480854FF063F080954B
:10259000F0500A7582301222B4154F80E830060FD1
:1025A000AA4E154EEA60087582201222B480F122EC
:1025B000E54F7003300D0D7407254FFAE54EC39AB1
:1025C000F54E8006E54E24FAF54E75510078658685
:1025D00002BA2B0F20080C7865762020090575516A
:1025E00001054E200619AA4EC3E464808AF063F008
:1025F0008095F0500A7582201222B4154E80E7C2F1
:102600000FE5512465F88602BA00028069BA451FB9
:102610003002027665C3E46480854FF063F08095F4
:10262000F0500A7582301222B4154F80E8D20FC3E1
:10263000E5519402E433FA7014EA700EC3E4648046
:10264000854FF063F08095F04003300F16E551247C
:1026500065F886028A821222B4E55124FD501215D3
:102660004F800E7402B55109300D0675822E12226C
:10267000B40551022601300619AA4EC3E464808ACB
:10268000F063F08095F0500A7582201222B4154E46
:1026900080E722858244858345E4F54BF54CAA52B8
:1026A000AB53AC548A828B838CF0121B3EFD7401B9
:1026B0002AF552E43BF5538C54EDFA7003022C39A1
:1026C000BA25028003022C31C206C207C208C20921
:1026D000C20AC20BC20CC20DC203C204C205754DB0
:1026E00000754E00754FFFAB52AC53AD548B828CCE
:1026F000838DF0121B3EFAA3AB82AC838B528C53BA
:102700008D54BA25078A821222B480928A06BE307E
:1027100000402E8A06EE24C6402774FFB54F13E50D
:102720004E75F00AA4FEEA24D02EF54E70BFD207F3
:1027300080BBE54F75F00AA4FEEA24D02EF54F8049
:10274000ACBA2E0A74FFB54FA4754F00809F8A065D
:10275000BE6100400E8A06EE248540075302DFD298
:10276000028002C202BA20028075BA23030227EE59
:10277000BA2A030227F3BA2B02805FBA2D028055D2
:10278000BA4202805FBA4303022838BA44030229DE
:1027900073BA450302298DBA4603022989BA470351
:1027A000022991BA4903022973BA4C02803BBA4EFE
:1027B00003022995BA4F0302297ABA500302290C61
:1027C000BA530302285CBA550302297FBA580302A0
:1027D00029840229BFD2060226EDD2080226EDD2B4
:1027E000090226EDD20B0226EDD20C0226EDD20D07
:1027F0000226ED74FFB54F20300B0BE55514F88819
:1028000055864E0226EDE55524FEF88855860608C5
:102810008607188E4E0226ED300B0BE55514F8880E
:1028200055864F0226EDE55524FEF88855860608A4
:102830008607188E4F0226ED300B0AE55514F888EE
:10284000558602800FE55524FEF8885586030886D4
:1028500004188B028A821222B40229C4E55524FD91
:10286000F88855860308860408860518188B468C58
:10287000478D488B828C838DF0122F88AB82AC837E
:102880008B5074FFB54F0385504F20061DC3E55094
:10289000954E5016E54EC39550F54EAB4E154EEB8A
:1028A00060087582201222B480F1854682854783B4
:1028B0008548F0121B3EFBFA6029AB4F154FC3E46D
:1028C00064808BF063F08095F050188A821222B4F5
:1028D000AB46AC47AD480BBB00010C8B468C478D1B
:1028E0004880C72006030229C4C3E550954E400323
:1028F0000229C4E54EC39550F54EAB4E154EEB7014
:10290000030229C47582201222B480EEE55524FD0D
:10291000F88855860308860408860518188B468CA7
:10292000478D48E548FB30E7047A438013EB546059
:1029300060047A50800AEB30E6047A4980027A58C3
:102940008A82C0021222B475823A1222B475823091
:102950001222B47582781222B4D002BA4902800BD6
:10296000BA500280068547821222E78546821222EB
:10297000E78051D20A754D0A804A754D0880457529
:102980004D0A8040754D10803BD2038037D20480C1
:1029900033D205802FE55524FDF888558603088637
:1029A0000408860518188B468C478D488B828C83CB
:1029B0008DF0E54B121F0BA3E54C121F0B80058A0F
:1029C000821222B4200306200403300570E555244A
:1029D000FCF88855860308860408860508860618CC
:1029E00018188B468C478D488E49E546E547E548E3
:1029F000E5498B828C838DF0EE122E6974FFB54F02
:102A000003754F06300527747F5549FB8B4AE54A0D
:102A1000EB2BFB8B4AE54830E7067401454AF54A43
:102A2000E54A246840067499254A4002D2043004DD
:102A3000061225B002269E12233D02269EE54D7009
:102A40000302269E7B6A300B2BE55514F88855E669
:102A5000FC3395E0FDFEFF8C468D478E488F492064
:102A60000A5EAC467D007E007F008C468D478E4816
:102A70008F49804C300C1FE55524FCF8885586049E
:102A80000886050886060886071818188C468D479C
:102A90008E488F49802AE55524FEF888558604081B
:102AA000860518ED3395E0FEFF8C468D478E488FE6
:102AB00049200A0CAC46AD477E007F008E488F4906
:102AC000300D43E54645474548454960397408B5EA
:102AD0004D0C758230C0031222B4D00380287410CC
:102AE000B54D23758230C0031222B4D00330020CDE
:102AF000758278C0031222B4D003800A758258C050
:102B0000031222B4D003300A25AC46AD47AE48E5E7
:102B100049FF30E717C3E49CFCE49DFDE49EFEE41E
:102B20009FFF8C468D478E488F498002C20A7550A0
:102B300000D20E8B00754A00C0001222FED0002089
:102B40000E0DE54AC4FCE6FD4CF61888038002A68B
:102B50004A0550B20EE54645474548454970D68876
:102B600003E54E7003754E0120071A200617E55045
:102B700004FCC3954E500E758220C0031222B4D0BF
:102B800003154E80E9300A0E75822DC0031222B45F
:102B9000D003154E8024E550602030080E75822B3E
:102BA000C0031222B4D003154E800F30090C758279
:102BB00020C0031222B4D003154E20061EAC4E15C1
:102BC0004EC3E5509C50273007047C3080027C20A7
:102BD0008C82C0031222B4D00380E2C3E550954E2C
:102BE0005009E54EC39550F54E8003754E008B009D
:102BF000AB501550EB6022B20E200E0A08E6C4540A
:102C00000FFB8B4A80078603740F5BF54A854A8267
:102C1000C0001222CED00080D720060302269EAB31
:102C20004E154EEB700302269E7582201222B48050
:102C3000EE8A821222B402269E854B82854C832224
:102C4000AA82BA0A0810990280FB75990D109902A0
:102C500080FB8A9922FFA8811818122121122103D2
:102C6000E96401F58222FFA8811818122121D2D12E
:102C700033E6400730E70B7582002220E7067582B5
:102C80000122C2D1122103E97003F5822220D10171
:102C9000B3E433F58222C2D5E58330E70DD2D5E423
:102CA000C39582F582E49583F583E55730E70DB24D
:102CB000D5E4C39556F556E49557F557122E0130D5
:102CC000D50BE4C39582F582E49583F58322AA822D
:102CD000AB83ACF0FD8A598B5A8C5B8D5C85596156
:102CE000855A62855B63855C64AE63E564A2E7CE6A
:102CF00033CE33CE540130E00244FE3395E08E5D96
:102D0000E4F55EF55FF560E55D2482F55DE55E3432
:102D1000FFF55EE55F34FFF55FE56034FFF560AC1D
:102D200056AD57AA58AE5DAF5E8C828D838AF0EEA9
:102D3000121F0BA3EF121F0BAA61AB62747F5563C6
:102D4000FC74805564FD8A598B5A8C5B8D5C743F92
:102D5000455CFD8A598B5A8C5B8D5C855982855AFE
:102D600083855BF0E55C22AA82AB83ACF0FD8A58D8
:102D70008B598C5A8D5BAA5AE55BA2E7CA33CA33DA
:102D8000CA540130E00244FE3395E08A5C755D0070
:102D9000755E00755F00AE56E557FF3395E0FAFBB0
:102DA000EE255CF55CEF355DF55DEA355EF55EEBD5
:102DB000355FF55FAA5C7B008A62EB5401A2E0C537
:102DC0006213C56213C562F563756100756000AE7C
:102DD00058AF59747F555AFA7480555BFBE56042D1
:102DE00006E5614207E5624202E56342038E588FC1
:102DF000598A5A8B5B855882855983855AF0E55BE1
:102E0000227A10E4FBFCE58225E0F582E58333F5C8
:102E100083EB33FBEC33FCEB9556F5F0EC95574028
:102E200006FCABF0438201DADD22FCABF0AA83A9F9
:102E300082749EF582C2D1EC30E716D2D1E9F42437
:102E400001F9EAF43400FAEBF43400FBECF434005A
:102E5000FC1221F60221A7AA82AB83A2F73392D1FA
:102E60006002D2F7F582ACF022C0E0F845824583DB
:102E700045F07009F5F0FBFCFDFE022F37E823A2B8
:102E8000F792E0F8A982AA83D2F7ABF07C007E0724
:102E9000C3749798404074FF2EFE740A89F0A4F919
:102EA00085F082740A8AF0A4FA85F083740A8BF0A4
:102EB000A4FB740529F9EA3582FAEB3583FB74002B
:102EC00035F0FCC3EC13FCEB13FBEA13FAE913F93E
:102ED00008EC70EF80BAE8C3947FF88B838EF0E43F
:102EE000FBFCFDFEFF08C3E933F9EA33FAE583335F
:102EF000F583EB3BD4FBEC3CD4FCED3DD4FDEE3E46
:102F0000D4FEEF3FD4FF602D05F074052BD4FBE415
:102F10003CD4FCE43DD4FDE43ED4FEE43FD4FF7554
:102F20008204C3EF13FFEE13FEED13FDEC13FCEB75
:102F300013FBD582EDD8AF7865D0E020E704762B7F
:102F40008002762D087906E7C4540F4430F608B99C
:102F50000603762E08E7540F4430F60819B902E745
:102F6000764508E5F020E704762B8004762DF404FE
:102F70000875F00A844430F608E5F04430F608E4B9
:102F8000F690006575F04022AA82AB83ACF07D001C
:102F90007E008A828B838CF0121B3EFFA3AA82AB39
:102FA00083EF60070DBD00EA0E80E78D828E8322DD
:00000001FF
