:100000000200037581631201B0E582600302006F94
:10001000780079007A007B007C007D00EC4D601C4C
:1000200088828983E493A3A882A9838A828B83F040
:10003000A3AA82AB831CBCFFE31D80E07582007520
:1000400083007C347D00EC4D600AE4F0A31CBCFF0F
:10005000F51D80F27582007583007C007D00EC4DFB
:10006000600AE4F0A31CBCFFF51D80F21201AF1280
:1000700009E680FE56723D252E3166560056733DC8
:10008000252E31665600252E316600506861736F4B
:1000900072003C202020204D6574657220202020B5
:1000A000203E0032001B5B324A00506861736F7261
:1000B000204D6561757372656D656E740A54657364
:1000C00074207369676E616C3A2050312E3520615F
:1000D0006E64205265666572656E6365207369673C
:1000E0006E616C3A2050322E330A46696C653A20B4
:1000F00025730A436F6D70696C65643A2025732C13
:100100002025730A0A00433A5C55736572735C7765
:100110006F6E67685C4F6E654472697665202D204E
:100120005542435C5542435C5965617220325C45DF
:100130004C4543203239315C454C45432D323931F1
:100140005C4C6162355C4C6162352E63004D6172BE
:1001500020203420323032350031363A35323A30D0
:10016000340056705F726566203D20252E3366563A
:100170002C2056705F736967203D20252E3366560C
:100180002C2050686173652044696666203D2025F7
:100190002E33666465672C2066203D20252E33664D
:1001A000487A2C2054203D20252E3366730D0022E2
:1001B00075A7007597DE7597AD75FF8075EF0675AD
:1001C000A71075C12075A70075A90075A900E5A93C
:1001D00030E7FB75A90375A903E5A930E7FB43A444
:1001E0001075E10175E20075E340759810758DE6B4
:1001F000858D8B53890F438920D28ED299758200C9
:1002000022AA82438E407592B87593FF8592948599
:1002100093957591047B00C3EB9A500BE59130E701
:10022000FB53917F0B80F075910022AA82AB837CF7
:10023000007D00C3EC9AED9B502B7E00BE04005065
:100240001D7582FAC002C003C004C005C0061202B8
:1002500001D006D005D004D003D0020E80DE0CBC45
:1002600000D10D80CE22AA82AB83C374FF9AE49B97
:1002700050187582FFC002C003120201D003D002E1
:10028000EA2401FAEB34FFFB80E0EA4B60058A8246
:10029000020201225389F0438901C28C22D2A07547
:1002A0008228120201C2A022AA828AE0A2E79290CA
:1002B000A2E69291A2E59292A2E49293C002120267
:1002C0009D758228120201D0028AE0A2E39290A2D8
:1002D000E29291A2E19292A2E0929302029DAA82FE
:1002E000D2978A821202A890000202022BAA82C22E
:1002F000978A821202A890000502022BC2A09000E9
:100300001412022B7582331202ED7582331202ED44
:100310007582321202ED7582281202ED75820C127E
:1003200002ED7582011202ED90001402022BAA82E6
:10033000AB83ACF07401B50B0A9000117480250CEE
:10034000F0800890001174C0250CF0900011E0F5C9
:1003500082C002C003C0041202ED90000512022BFD
:10036000D004D003D0027D007E00ED2AFFEE3BF8E2
:100370008C018F82888389F0120E05FF60208F82A6
:10038000C002C003C004C005C0061202DED006D001
:1003900005D004D003D0020DBD00CF0E80CC3000BC
:1003A000248D028E03C3EA9410EB64809480501570
:1003B000758220C002C0031202DED003D0020ABA46
:1003C00000E30B80E022AA8274075AF5F005F0746E
:1003D00001800225E0D5F0FBFBEAC4540FFA24FCAF
:1003E0004013EA2A2A9003E9730203F50203FE028E
:1003F0000407020410900012EB5580F08019900061
:1004000012EB5590F08010900012EB55A0F0800791
:10041000900012EB55B0F0900012E024FF92012200
:10042000AA82C0021203C6D002402E90000AC00267
:1004300012022BD0028A82C0021203C6E433D00219
:1004400060F390000AC00212022BD0028A821203CB
:10045000C6E433FABA0102D322C322AA8274075A2D
:10046000F5F005F07401800225E0D5F0FBF4FBEA1D
:10047000C4540FFA24FC4022EA2A2A90047F730213
:10048000048B02048F020493020497EB52A422EB24
:1004900052A522EB52A622EB529C2275A700C2EF76
:1004A00075B28075BC2075B91E75E80075DF3F75A3
:1004B000B300D2EF22AA828545F005F074018002D4
:1004C00025E0D5F0FBFB75A720BA0002800ABA012F
:1004D00002800FBA021E8014EBF4FA52F1EB42D400
:1004E0008012EBF4FA52F2EB42D58008EBF4FA52A8
:1004F000F3EB42CC75A700228582BBC2EDD2EC3073
:10050000EDFD85BD8285BE83221204F8120E21AA5C
:1005100082AB83ACF0FDC002C003C004C0059053A1
:10052000F875F0537440120E91AA82AB83ACF0FDC3
:10053000E58124FCF581E4C0E074FCC0E0747FC078
:10054000E07446C0E08A828B838CF0ED121298AA88
:1005500082AB83ACF0FDE58124FCF5818A828B833C
:100560008CF0ED22900000E4F0C28C758C00758A4E
:1005700000C28D20A6FD30A6FDD28C30A60E108DB7
:100580000280F8900000E02401F080EF20A60E1019
:100590008D0280F8900000E02401F080EFC28C9082
:1005A0000000E0F582120F34AA82AB83ACF0FDC0EC
:1005B00002C003C004C00590000075F080744712AB
:1005C0000E91AA82AB83ACF0FDE58124FCF5818518
:1005D0008C82C002C003C004C005120F34AE82AFCB
:1005E00083A8F0F9C006C007C000C00190000075E4
:1005F000F0807443120E91AE82AF83A8F0F9E581CA
:1006000024FCF581D005D004D003D002C006C00779
:10061000C000C0018A828B838CF0ED120F3FAA824A
:10062000AB83ACF0FDE58124FCF581AE8A7F008EC2
:10063000828F83C002C003C004C00512128BAE8239
:10064000AF83A8F0F9D005D004D003D002C006C013
:1006500007C000C0018A828B838CF0ED120F3FAA85
:1006600082AB83ACF0FDE58124FCF581C002C003C0
:10067000C004C00590F4FC75F0327434120E91AAD7
:1006800082AB83ACF0FDE58124FCF5818A828B830B
:100690008CF0ED22AA82AB83ACF0FDC002C003C097
:1006A00004C00590240075F0747449120E91AA825A
:1006B000AB83ACF0FDE58124FCF581E4C0E0C0E053
:1006C0007480C0E07440C0E08A828B838CF0ED12AD
:1006D0001298AA82AB83ACF0FDE58124FCF5818AF7
:1006E000828B838CF0ED120E5D8582108583112044
:1006F000A6FD30A6FD851082851183120266AC0D21
:10070000AD0EAE0F758210C004C005C006120509FB
:10071000AF82A883A9F0FAD006D005D0048C828DD0
:10072000838EF0EF1211D2A3E81211D2A3E91211B5
:10073000D2A3EA1211D22094FD3094FD8510828557
:100740001183C004C005C006120266D006D005D0D1
:100750000474042CFCE43DFD75820BC004C005C08C
:1007600006120509AA82AB83AFF0F8D006D005D0F7
:10077000048C828D838EF0EA1211D2A3EB1211D277
:10078000A3EF1211D2A3E80211D2758C00758A0072
:10079000C28CC28D900000E4F020A6FD30A6FDD2F0
:1007A0008C30940E108D0280F8900000E02401F04F
:1007B00080EF20940E108D0280F8900000E024015C
:1007C000F080EFC28C900000E0F582120F34AA8214
:1007D000AB83ACF0FDC002C003C004C005900000B4
:1007E00075F0807447120E91AA82AB83ACF0FDE5E0
:1007F0008124FCF581858C82C002C003C004C00541
:10080000120F34AE82AF83A8F0F9C006C007C00053
:10081000C00190000075F0807443120E91AE82AF5B
:1008200083A8F0F9E58124FCF581D005D004D0033C
:10083000D002C006C007C000C0018A828B838CF042
:10084000ED120F3FAA82AB83ACF0FDE58124FCF5ED
:1008500081AE8A7F008E828F83C002C003C004C035
:100860000512128BAE82AF83A8F0F9D005D004D068
:1008700003D002C006C007C000C0018A828B838CEF
:10088000F0ED120F3FAA82AB83ACF0FDE58124FCB2
:10089000F581C002C003C004C00590F4FC75F032BD
:1008A0007434120E91AA82AB83ACF0FDE58124FC76
:1008B000F5818A828B838CF0ED22AA82AB83BA0009
:1008C00005BB00028013BA0106BB00030209B3BADC
:1008D0000206BB00030209D522E51245137003028C
:1008E0000970900001E0FAA3E0FBA3E0FCA3E0FDA7
:1008F000C002C003C004C0057474C0E07400C0E04E
:100900007480C0E07413C0E07400C0E0E4C0E01282
:10091000123AE58124F6F581750B01750C00D200C1
:1009200090001375F00012032E900005E0FAA3E08A
:10093000FBA3E0FCA3E0FDC002C003C004C005743B
:100940007DC0E07400C0E07480C0E07413C0E07447
:1009500000C0E0E4C0E012123AE58124F6F58175AA
:100960000B02750C00D20090001375F00002032EEC
:10097000900009E0C0E0A3E0C0E0A3E0C0E0A3E095
:10098000C0E07486C0E07400C0E07480C0E07413FE
:10099000C0E07400C0E0E4C0E012123AE58124F641
:1009A000F581750B02750C00D20090001375F000F4
:1009B00002032E750B01750C04D20090008B75F0AC
:1009C0008012032E750B02750C00D20090009275F8
:1009D000F08002032E750B01750C00D2009000A36D
:1009E00075F08002032E90002CE4F0A3F09000320A
:1009F0007401F0E4A3F01202941202FC7545017533
:100A000082021204B57545027582021204B5120401
:100A10009B75823112045B75822512045B9001F490
:100A200012022B74A5C0E07400C0E07480C0E01214
:100A30000FAD1581158115817459C0E07401C0E0B6
:100A40007480C0E0744DC0E07401C0E07480C0E008
:100A50007406C0E07401C0E07480C0E074AAC0E015
:100A60007400C0E07480C0E0120FADE58124F4F59D
:100A700081120564AA82AB83ACF0FD750D01750E81
:100A800000750F008A828B838CF0EDC002C003C01A
:100A900004C00512069412078A8582148583158581
:100AA000F016F51790002EE514F0A3E515F0A3E578
:100AB00016F0A3E517F0900001E0F518A3E0F51992
:100AC000A3E0F51AA3E0F51B900000E4F5F07440F4
:100AD000120FCEAE82AF83A8F0F9C006C007C000E7
:100AE000C001851882851983851AF0E51B121298BA
:100AF000AE82AF83A8F0F9E58124FCF58190002453
:100B0000EEF0A3EFF0A3E8F0A3E9F0900005E0F524
:100B100018A3E0F519A3E0F51AA3E0F51B90000077
:100B2000E4F5F07440120FCEAE82AF83A8F0F9C0A6
:100B300006C007C000C001851882851983851AF098
:100B4000E51B121298AE82AF83A8F0F9E58124FC70
:100B5000F581D005D004D003D002900028EEF0A398
:100B6000EFF0A3E8F0A3E9F0C002C003C004C005A1
:100B7000E4C0E0C0E0C0E07440C0E08A828B838CB7
:100B8000F0ED121298AE82AF83A8F0F9E58124FC53
:100B9000F581C006C007C000C00185148285158399
:100BA0008516F0E517120E2DAE82E58124FCF58145
:100BB000D005D004D003D002EE6041C002C003C013
:100BC00004C005C002C003C004C005851482851599
:100BD000838516F0E517121280AE82AF83A8F0F974
:100BE000E58124FCF581D005D004D003D00290002B
:100BF0002EEEF0A3EFF0A3E8F0A3E9F0C002C003EB
:100C0000C004C00590002EE0C0E0A3E0C0E0A3E077
:100C1000C0E0A3E0C0E090000075F0B474C3120E11
:100C200091AE82AF83A8F0F9E58124FCF581D0056F
:100C3000D004D003D002C002C003C004C005C0026B
:100C4000C003C004C0058E828F8388F0E912129819
:100C5000AE82AF83A8F0F9E58124FCF581D005D000
:100C600004D003D002900009EEF0A3EFF0A3E8F067
:100C7000A3E9F0C002C003C004C005C002C003C0A5
:100C800004C00590000075F080743F121298AE8287
:100C9000AF83A8F0F9E58124FCF58190000DEEF01A
:100CA000A3EFF0A3E8F0A3E9F0758231120420E489
:100CB00033D005D004D003D002605C900032E0FE57
:100CC000A3E0FFBE010CBF0009900032E4F0A3F0E6
:100CD0008027BE020EBF000B9000327401F0E4A327
:100CE000F08016EE4F701290002CE0FEA3E0FF9013
:100CF000002CEEF4F0EFF4A3F0758201C002C00303
:100D0000C004C0051202ED90000512022BD005D0E0
:100D100004D003D002805B758225C002C003C004EA
:100D2000C005120420E433D005D004D003D0026003
:100D300041900032E0FEA3E0FF4E700B9000327451
:100D400001F0E4A3F0800FBE010CBF000990003257
:100D50007402F0E4A3F0758201C002C003C004C0B5
:100D6000051202ED90000512022BD005D004D0032D
:100D7000D002900032E0FEA3E0FF90002CE0F512DC
:100D8000A3E0F5138E828F83C002C003C004C005A8
:100D90001208BA900005E0F518A3E0F519A3E0F5F4
:100DA0001AA3E0F51B900001E0FEA3E0FFA3E0F82A
:100DB000A3E0F990000DE0C0E0A3E0C0E0A3E0C034
:100DC000E0A3E0C0E0900009E0C0E0A3E0C0E0A341
:100DD000E0C0E0A3E0C0E0C018C019C01AC01BC04A
:100DE00006C007C000C0017462C0E07401C0E074B6
:100DF00080C0E0120FADE58124E9F5819001F41285
:100E0000022B020A7120F71430F6148883A882207E
:100E1000F507E6A88375830022E280F7E49322E0D9
:100E200022E4AC83AB82FAF9748E0213C0FFA8816E
:100E300018181213E8D2D133E6400730E70B758259
:100E4000012220E70675820022C2D11213CAE9707E
:100E500003F5822230D101B3E433F5822212141358
:100E6000700AE582458345F0700122E430D112F426
:100E7000700BE5F0F47006E58330E7012290800006
:100E800022700AE5F07006E58320E70122907FFFDB
:100E9000221214F0BC000302148FEF60FA30D50266
:100EA000B2D1E583B4FF030214A5E582B4FF0302C7
:100EB00014A5258340072482400B02148F24831439
:100EC00050030214A5F582EA8DF0A4A8F0EA8EF092
:100ED000A428F8E435F0F9EB8DF0A428E935F0F911
:100EE000E433CA8FF0A429F9EA35F0FAEBF88EF072
:100EF000A429F9EA35F0FAE433FBEC8DF0A429F9E2
:100F0000EA35F0FAE43BFBE88FF0A42AFAEB35F07F
:100F1000FBE433CCFD8EF0A42AFAEB35F0FBE43C85
:100F2000FCED8FF0A42BFBEC35F0FC20E703121452
:100F3000BD02146EE4AC82FBFAF974860213C0128F
:100F400014F07900E583B58202800D500312151E5E
:100F5000E583C39582121538E5D0C465D020E1172A
:100F6000EA2DFAEB3EFBEC3FFC50097401121538F8
:100F7000EC4480FC02146EC3EA9DFAEB9EFBEC9FEE
:100F8000FC500FC3E499F9E49AFAE49BFBE49CFC5F
:100F9000B2D11214BD02146E021F078582378583F9
:100FA0003885F039851C3A900F9802195AC0088587
:100FB0008108E50824FBF53AE50824FBF8863708A4
:100FC0008638088639900F9812195AD00822AA82BA
:100FD000AB83ACF0FDEA4B4C8DF0C2F745F07008E6
:100FE0008A828B838CF0ED22C002C003C004C0054E
:100FF000E4C0E0C0E07480C0E0743FC0E08A828B4F
:10100000838CF0ED121F1CAE82E58124FCF581D0AB
:1010100005D004D003D002EE600990000075F08086
:10102000743F22C002C003C004C005E4C0E0C0E0B9
:10103000C0E0C0E08A828B838CF0ED121F2DAE825F
:10104000E58124FCF581D005D004D003D002EE6008
:101050000D750921E4F50A900000E4F5F0227545CC
:101060003F7546007547408A828B838CF0ED121FD6
:101070009585823B85833C85F03DF53EC03BC03C79
:10108000C03DC03E9014BA75F017743F120E91AE79
:1010900082AF83A8F0F9E58124FCF58174A8C0E053
:1010A00074A9C0E074D5C0E0743EC0E08E828F8326
:1010B00088F0E9120F3FAE82AF83A8F0F9E58124F2
:1010C000FCF581C006C007C000C001C006C007C053
:1010D00000C001853B82853C83853DF0E53E1212D0
:1010E00098AA82AB83ACF0FDE58124FCF581D001A8
:1010F000D000D007D006C002C003C004C0058E8255
:101100008F8388F0E9120F3FAE82AF83A8F0F9E534
:101110008124FCF5817545FE7546FF8E828F83889C
:10112000F0E9C006C007C000C00112202E85824130
:1011300085834285F043F544853B82853C83853D2C
:10114000F0E53E121298AA82AB83ACF0FDE5812453
:10115000FCF581C002C003C004C005854182854200
:10116000838543F0E544120F3FAE82AF83A8F0F9C8
:10117000E58124FCF581E53F30E028C006C007C0CA
:1011800000C0019004F375F035743F120E91AE82E9
:10119000AF83A8F0F9E58124FCF581053FE4B53F74
:1011A000020540754502E4F546853F82854083C0CF
:1011B00006C007C000C001121F5D858245858346B9
:1011C000D001D000D007D0068E828F8388F0E9024C
:1011D000202E20F71030F6118883A88220F507F61C
:1011E000A88375830022F280F7F022AA82AB22AC9A
:1011F00023AD248B828C838DF0EA1211D20522E478
:10120000B5220205232285822285832385F0248549
:10121000253785263885273985283A9011EB12190C
:101220005AAA82AB83AC22AD23AE248C828D838EEE
:10123000F0E41211D28A828B8322C008858108E5EE
:101240000824F8F53AE50824FBF8862208862308E6
:101250008624E50824F8F886370886380886399009
:1012600011EB12195AAA82AB83AC22AD23AE248CA7
:10127000828D838EF0E41211D28A828B83D0082271
:10128000A8811818C6B2E7C6020F3FAC83AB827ABA
:10129000007900748E0220FA1214F030D502B2D117
:1012A000BF0009BC00030214B20214A5BC00030273
:1012B000148FE583B4FF0BE582B4FF030214B2027E
:1012C000148FE582B4FF030214A5C395835007244D
:1012D0007F400B02148F24801450030214A5C0E039
:1012E000E4CCCBCAF98D458E468F47EF54F0C4F558
:1012F000487583068548F0EB84F582E9C4F9EAC4B1
:10130000FAEBC4FBEC540FC47803D6FC18EBD6FB05
:1013100018EAD6FA8582F0EDA4A8F0FD8582F0EEF9
:10132000A428FEE435F0F88582F0EFA428FFE43528
:10133000F0F8E99DF9EA9EFAEB9FFBEC98FCAD45CD
:10134000AE46AF4730E7101582E92DF9EA3EFAEBD9
:101350003FFBE43CFC80EDC082D58398C3E933F9C0
:10136000EA33FAEB33FBEC33FCC3E99DEA9EEB9FD7
:10137000EC9400B3E413F9D002D0E0C44AFAD003ED
:10138000D0E0C44BFBD004D0E0F5F0540FC44CFCCB
:10139000D082158230F40FD3EC13FCEB13FBEA136D
:1013A000FAE913F90582E930E70A74012AFAE43B05
:1013B000FBE43CFC021486FCABF0AA83A982749E79
:1013C000C2D1F5821214BD02146E7901AA82E68F91
:1013D00082B5821318E6B5F00E18E6B5830918E653
:1013E0008A82B58202790022B4800FE5F0700AE5A6
:1013F000837006E58270027F00EFB6801518B60094
:101400001018B6000B18B600060808087600220867
:1014100008082212211EC3749E9582403979001259
:10142000153830D126E9F42401F582EAF43400F5C8
:1014300083EBF43400F5F0ECF43400700AE58245F7
:101440008345F0700122E430E70F22EC20E7148995
:10145000828A838BF02230D10AE4F582F583F5F09D
:1014600074802274FFF582F583F5F0747F22B980D1
:1014700003EA13B34010EA2401FAE43BFBE43CFC2A
:1014800050047C800582BC000EBB000BBA0008E44F
:10149000F5F0F583F58222A2D1E582138CF092F764
:1014A0008B838A8222E4F583F58275F080F4A2D1E1
:1014B0001322E4F583F58275F0C0747F227804EC82
:1014C0007011E58224F8500AF582E4C9CACBFCD831
:1014D000EF22EC7820058220E713D5820122C3E9B0
:1014E00033F9EA33FAEB33FBEC33FCD8EA1582220A
:1014F000AA82AB83A2F73392D16002D2F7F582AC15
:10150000F0E58124F9F8E6FD08E6FE0886F008E635
:10151000A2F73392D56002D2F7F583AFF022E582CD
:10152000C583F582A2D133A2D592D11392D5ECCF47
:10153000FCEBCEFBEACDFA226040F8258250027423
:10154000FFF582E824F8501ECCCBCAF9E4CC24F88D
:101550005014CBCAF9E4CB24F8500BCAF9E4CA24DE
:10156000F8500379002224086010F8C3EC13FCEB58
:1015700013FBEA13FAE913F9D8F122AA82748CC09A
:10158000E07415C0E0C029C02A8A82220530E4B583
:101590003002053122AA8274302AFA24C6500A7415
:1015A000072AFA3002034302208A8202157BE58271
:1015B000FAC4540FF582C002121595D002740F5A66
:1015C000F582021595AA2BAB2CAC2DAD2EAE2F7546
:1015D0003620EE2EFEED235401FF4206EA2AFAEBF6
:1015E00033FBEC33FCED33FDC3EE95324008EEC324
:1015F0009532FE430201D536D98A2B8B2C8C2D8D4A
:101600002E8E2F227860E624D075F00AA4FA786135
:10161000E624D02AFA785F8603BB2D04C3E49AFA45
:10162000753201C3E464808AF063F08095F050293C
:101630007536038A0374F62536401C0532E53614E8
:101640002454F8E5362454F98704A604772E1BEBBE
:10165000FA6004053680DE8B02EA30E70D785586A5
:10166000037856A6037855762E0AE534600AE534E9
:1016700004FB2532F5328005300D020532785486A0
:1016800003E4BB2D0104FB700620080330090205AA
:101690003230060302174B300757EB600C75822D72
:1016A000C00212157BD002801C30080C75822BC042
:1016B0000212157BD002800D30090A758220C0020B
:1016C00012157BD00278558604BC2E0C758230C072
:1016D0000212157BD0021533AC331533C3E5329CAF
:1016E000400302178F758230C00212157BD0028032
:1016F000E7AC331533C3E5329C500C758220C00231
:1017000012157BD00280EA78548604BC2D0C7582B9
:101710002DC00212157BD002801C30080C75822B64
:10172000C00212157BD002800D30090A758220C0DC
:101730000212157BD00278558604BC2E5275823079
:10174000C00212157BD00215338044EB600E758207
:101750002DC00212157BD0021533802030080E7583
:10176000822BC00212157BD0021533800F30090C7A
:10177000758220C00212157BD0021533785586037E
:10178000BB2E0C758230C00212157BD0021533754A
:101790003601C20FE5362454F88603BB4503021810
:1017A0004CBB2E348A03C3E464808BF063F08095D5
:1017B000F0500F758230C00312157BD0031B8B02D3
:1017C00080E48B02D20FE5347038200D0302184CF0
:1017D00075822E12157B8074300F278A03EB30E759
:1017E0001FC3E464808534F063F08095F0500C757D
:1017F0008230C00312157BD00315340B8B0280DDC1
:101800008B02300F0EC3E464808534F063F0809562
:10181000F05021E5362454F886038B82C00212155D
:101820007BD002300F0EE5362454F88603BB2E021F
:10183000800215341533C3E464808534F063F0808E
:1018400095F04003200F050536021794C3E4648029
:101850008534F063F08095F0500A75823012157B64
:10186000153480E830060FAA331533EA6008758214
:101870002012157B80F122E5347003300D0D7407C2
:101880002534FAE533C39AF5338006E53324FAF5B7
:101890003375360078548602BA2B0F20080C785422
:1018A00076202009057536010533200619AA33C3B1
:1018B000E464808AF063F08095F0500A758220120B
:1018C000157B153380E7C20FE5362454F88602BA3B
:1018D00000028069BA451F3002027665C3E4648065
:1018E0008534F063F08095F0500A75823012157BD4
:1018F000153480E8D20FC3E5369402E433FA70144D
:10190000EA700EC3E464808534F063F08095F040A3
:1019100003300F16E5362454F886028A8212157BAE
:10192000E53624FD50121534800E7402B5360930A8
:101930000D0675822E12157B05360218C830061961
:10194000AA33C3E464808AF063F08095F0500A758E
:10195000822012157B153380E72285822985832A10
:10196000E4F530F531AA37AB38AC398A828B838CF9
:10197000F0120E05FD74012AF537E43BF5388C3979
:10198000EDFA7003021F00BA25028003021EF8C29E
:1019900006C207C208C209C20AC20BC20CC20DC2EB
:1019A00003C204C2057532007533007534FFAB37CE
:1019B000AC38AD398B828C838DF0120E05FAA3AB57
:1019C00082AC838B378C388D39BA25078A82121501
:1019D0007B80928A06BE3000402E8A06EE24C640E6
:1019E0002774FFB53413E53375F00AA4FEEA24D05A
:1019F0002EF53370BFD20780BBE53475F00AA4FE24
:101A0000EA24D02EF53480ACBA2E0A74FFB534A483
:101A1000753400809F8A06BE6100400E8A06EE245F
:101A20008540075302DFD2028002C202BA20028040
:101A300075BA2303021AB5BA2A03021ABABA2B02DC
:101A4000805FBA2D028055BA4202805FBA4303021A
:101A50001AFFBA4403021C3ABA4503021C54BA46A0
:101A600003021C50BA4703021C58BA4903021C3A2D
:101A7000BA4C02803BBA4E03021C5CBA4F03021CF4
:101A800041BA5003021BD3BA5303021B23BA5503B6
:101A9000021C46BA5803021C4B021C86D2060219CD
:101AA000B4D2080219B4D2090219B4D20B0219B483
:101AB000D20C0219B4D20D0219B474FFB53420301F
:101AC0000B0BE53A14F8883A86330219B4E53A2448
:101AD000FEF8883A8606088607188E330219B43055
:101AE0000B0BE53A14F8883A86340219B4E53A2427
:101AF000FEF8883A8606088607188E340219B43034
:101B00000B0AE53A14F8883A8602800FE53A24FE7B
:101B1000F8883A8603088604188B028A8212157B9D
:101B2000021C8BE53A24FDF8883A860308860408EF
:101B3000860518188B2B8C2C8D2D8B828C838DF029
:101B400012224FAB82AC838B3574FFB534038535DD
:101B50003420061DC3E53595335016E533C395355E
:101B6000F533AB331533EB600875822012157B809B
:101B7000F1852B82852C83852DF0120E05FBFA60F2
:101B800029AB341534C3E464808BF063F08095F0A6
:101B900050188A8212157BAB2BAC2CAD2D0BBB00E1
:101BA000010C8B2B8C2C8D2D80C7200603021C8BE7
:101BB000C3E53595334003021C8BE533C39535F5FA
:101BC00033AB331533EB7003021C8B758220121577
:101BD0007B80EEE53A24FDF8883A860308860408FF
:101BE000860518188B2B8C2C8D2DE52DFB30E704EA
:101BF0007A438013EB546060047A50800AEB30E63D
:101C0000047A4980027A588A82C00212157B758252
:101C10003A12157B75823012157B75827812157B0E
:101C2000D002BA4902800BBA50028006852C82127B
:101C300015AE852B821215AE8051D20A75320A80FC
:101C40004A753208804575320A8040753210803BF3
:101C5000D2038037D2048033D205802FE53A24FDA9
:101C6000F8883A860308860408860518188B2B8C9A
:101C70002C8D2D8B828C838DF0E5301211D2A3E553
:101C8000311211D280058A8212157B2003062004AE
:101C900003300570E53A24FCF8883A860308860488
:101CA0000886050886061818188B2B8C2C8D2D8E0F
:101CB0002EE52BE52CE52DE52E8B828C838DF0EE29
:101CC00012213074FFB53403753406300527747F54
:101CD000552EFB8B2FE52FEB2BFB8B2FE52D30E7C4
:101CE000067401452FF52FE52F24684006749925C9
:101CF0002F4002D20430040612187702196512161A
:101D000004021965E53270030219657B59300B2B0B
:101D1000E53A14F8883AE6FC3395E0FDFEFF8C2B9B
:101D20008D2C8E2D8F2E200A5EAC2B7D007E007FA9
:101D3000008C2B8D2C8E2D8F2E804C300C1FE53A75
:101D400024FCF8883A860408860508860608860773
:101D50001818188C2B8D2C8E2D8F2E802AE53A2466
:101D6000FEF8883A860408860518ED3395E0FEFFF4
:101D70008C2B8D2C8E2D8F2E200A0CAC2BAD2C7E17
:101D8000007F008E2D8F2E300D43E52B452C452DE9
:101D9000452E60397408B5320C758230C0031215B7
:101DA0007BD00380287410B53223758230C00312B3
:101DB000157BD00330020C758278C00312157BD0DE
:101DC00003800A758258C00312157BD003300A25A0
:101DD000AC2BAD2CAE2DE52EFF30E717C3E49CFCF9
:101DE000E49DFDE49EFEE49FFF8C2B8D2C8E2D8FB9
:101DF0002E8002C20A753500D20E8B00752F00C0EE
:101E0000001215C5D000200E0DE52FC4FCE6FD4CD8
:101E1000F61888038002A62F0535B20EE52B452C57
:101E2000452D452E70D68803E533700375330120A8
:101E3000071A200617E53504FCC39533500E75824A
:101E400020C00312157BD003153380E9300A0E75CC
:101E5000822DC00312157BD00315338024E5356035
:101E60002030080E75822BC00312157BD00315336A
:101E7000800F30090C758220C00312157BD003152A
:101E80003320061EAC331533C3E5359C502730078D
:101E9000047C3080027C208C82C00312157BD0032E
:101EA00080E2C3E53595335009E533C39535F53305
:101EB00080037533008B00AB351535EB6022B20E15
:101EC000200E0A08E6C4540FFB8B2F80078603748C
:101ED0000F5BF52F852F82C000121595D00080D79B
:101EE000200603021965AB331533EB700302196545
:101EF00075822012157B80EE8A8212157B0219658D
:101F000085308285318322AA82BA0A08109902801C
:101F1000FB75990D10990280FB8A9922FFA8811800
:101F2000181213E81213CAE96401F58222FFA8818E
:101F300018181213E8D2D133E6400730E70B758248
:101F4000002220E70675820122C2D11213CAE9706D
:101F500003F5822220D101B3E433F58222C2D5E514
:101F60008330E70DD2D5E4C39582F582E49583F5FD
:101F700083E54630E70DB2D5E4C39545F545E495D4
:101F800046F5461220C830D50BE4C39582F582E4AD
:101F90009583F58322AA82AB83ACF0FD8A488B49F6
:101FA0008C4A8D4B854850854951854A52854B5303
:101FB000AE52E553A2E7CE33CE33CE540130E00229
:101FC00044FE3395E08E4CE4F54DF54EF54FE54C6F
:101FD0002482F54CE54D34FFF54DE54E34FFF54ECA
:101FE000E54F34FFF54FAC45AD46AA47AE4CAF4D7B
:101FF0008C828D838AF0EE1211D2A3EF1211D2AA35
:1020000050AB51747F5552FC74805553FD8A488BF8
:10201000498C4A8D4B743F454BFD8A488B498C4A0D
:102020008D4B854882854983854AF0E54B22AA82FB
:10203000AB83ACF0FD8A478B488C498D4AAA49E5B1
:102040004AA2E7CA33CA33CA540130E00244FE331D
:1020500095E08A4B754C00754D00754E00AE45E518
:1020600046FF3395E0FAFBEE254BF54BEF354CF58B
:102070004CEA354DF54DEB354EF54EAA4B7B008ABB
:1020800051EB5401A2E0C55113C55113C551F5528E
:10209000755000754F00AE47AF48747F5549FA74CC
:1020A00080554AFBE54F4206E5504207E5514202A2
:1020B000E55242038E478F488A498B4A854782857D
:1020C00048838549F0E54A227A10E4FBFCE5822545
:1020D000E0F582E58333F583EB33FBEC33FCEB95E2
:1020E00045F5F0EC95464006FCABF0438201DADDA5
:1020F00022FCABF0AA83A982749EF582C2D1EC3097
:10210000E716D2D1E9F42401F9EAF43400FAEBF449
:102110003400FBECF43400FC1214BD02146EAA82ED
:10212000AB83A2F73392D16002D2F7F582ACF022F2
:10213000C0E0F84582458345F07009F5F0FBFCFDF1
:10214000FE0221FEE823A2F792E0F8A982AA83D238
:10215000F7ABF07C007E07C3749798404074FF2E65
:10216000FE740A89F0A4F985F082740A8AF0A4FA50
:1021700085F083740A8BF0A4FB740529F9EA358293
:10218000FAEB3583FB740035F0FCC3EC13FCEB1366
:10219000FBEA13FAE913F908EC70EF80BAE8C3948C
:1021A0007FF88B838EF0E4FBFCFDFEFF08C3E93370
:1021B000F9EA33FAE58333F583EB3BD4FBEC3CD40B
:1021C000FCED3DD4FDEE3ED4FEEF3FD4FF602D0587
:1021D000F074052BD4FBE43CD4FCE43DD4FDE43E98
:1021E000D4FEE43FD4FF758204C3EF13FFEE13FE69
:1021F000ED13FDEC13FCEB13FBD582EDD8AF785457
:10220000D0E020E704762B8002762D087906E7C41B
:10221000540F4430F608B90603762E08E7540F44ED
:1022200030F60819B902E7764508E5F020E70476AC
:102230002B8004762DF4040875F00A844430F608E7
:10224000E5F04430F608E4F690005475F04022AA18
:1022500082AB83ACF07D007E008A828B838CF0128F
:102260000E05FFA3AA82AB83EF60070DBD00EA0E47
:1022700080E78D828E8322000000000000000000B5
:00000001FF
