:030000000201C238
:0100030032CA
:03000B000200F8F8
:0100130032BA
:01001B0032B2
:0100230032AA
:03002B00020122AD
:10002E00C000788500D8FDD00022C000C00179281C
:10003E007868D8FED9FADAF6D001D00022D294121E
:10004E00002EC29422A2E79283A2E69282A2E592A9
:10005E0081A2E4928012004B12002EA2E39283A2A0
:10006E00E29282A2E19281A2E0928012004B22D211
:10007E0093020053C293020053C294C0027A281214
:10008E000038D0027433120082743312008274323C
:10009E001200827428120082740C120082740112F3
:1000AE000082C0027A02120038D00222E493600667
:1000BE0012007DA380F62244404480020082C0E0FC
:1000CE00E8C4540F443012007DE8540F443012003F
:1000DE007DD0E022438E08E58954F04401F5897500
:1000EE008CF0758A2CD2A9C28C22C28C758CF075BC
:1000FE008A2CD28CB2923275C80075CDBF75CC28C1
:10010E0043C98075CBBF75CA28E4F530F531439BE2
:10011E0080D2CA22C2CFC0E0C0D00530E530700216
:10012E000531E530B4E818E531B40313D200B28CD2
:10013E00E4F530F531120152E53960031201A1D018
:10014E00D0D0E032C0E0C0D0E5322401B43C29E486
:10015E00D4F532E5332401B43C21E4D4F533E5344F
:10016E002401B40D0774011201938007B40C04E44A
:10017E00120193D4F5348008D4F532D4F5338000CF
:10018E00D0D0D0E022E535B2E0F53522E538B2E048
:10019E00F53822C0E0C0D0E534B53713E533B536B7
:1001AE000EE535B53809E53A7005753A01D28CD0B1
:1001BE00D0D0E02275817F75B10075B20075B300A5
:1001CE0075B40075AD0075AD001200E2120105D2D6
:1001DE00AF120087C0E07401141200C7D0E0C083D4
:1001EE00C082C0E090037D1200BAD0E0D082D083EE
:1001FE00C0E07401141200C5D0E0C083C082C0E01C
:10020E0090038C1200BAD0E0D082D0837400D4F563
:10021E0032F533F534753500753600753706753998
:10022E0000753800753A00753B00200002800712F9
:10023E000361C200800F209515C0027A3212003879
:10024E00D002209509E53BB2E0F53B02023820854D
:10025E0020C0027A32120038D0022085143085FD7B
:10026E00E53B20E00612034302036112030702037B
:10027E006120B020C0027A32120038D00220B014B1
:10028E0030B0FDE53B20E0061203250203611202A9
:10029E00E9020361209720C0027A32120038D002A0
:1002AE002097143097FDE53B20E0061201930203E0
:1002BE006112019A02036120951EC0027A32120069
:1002CE0038D0022095123095FDE539B2E0F539E5CA
:1002DE00397005753A00C28C020361C0E0C0D0E5EA
:1002EE00362401B43C0C7400F536120307D0D0D07E
:1002FE00E022F536D0D0D0E022C0E0C0D0E53724E1
:10030E0001B40D0C7400F53712019AD0D0D0E02252
:10031E00F537D0D0D0E022C0E0C0D0E5332401B410
:10032E003C0C7400F533120343D0D0D0E022F533E9
:10033E00D0D0D0E022C0E0C0D0E5342401B40D0C02
:10034E007401F534120193D0D0D0E022F534D0D020
:10035E00D0E022C0E0C0D0C0E0740D141200C7D0AF
:10036E00E0C000A8321200CCD000D0D0D0E0225491
:10037E00696D65202020203A20203A202000416C13
:10038E0061726D2020203A202000410050006F6ED7
:05039E00006F6666001F
:00000001FF
