:030000000201A753
:0100030032CA
:03000B000200F6FA
:0100130032BA
:01001B0032B2
:0100230032AA
:03002B00020120AF
:10002E00C000788500D8FDD00022C000C00179281C
:10003E007868D8FED9FADAF6D001D00022D294121E
:10004E00002EC29422A2E79283A2E69282A2E592A9
:10005E0081A2E4928012004B12002EA2E39283A2A0
:10006E00E29282A2E19281A2E0928012004B22D211
:10007E0093020053C293020053C294C0027A281214
:10008E000038D0027433120082743312008274323C
:10009E001200827428120082740C120082740112F3
:1000AE000082C0027A02120038D00222E493600667
:1000BE0012007DA380F62244404480020082C0E0FC
:1000CE00E8C4540F443012007DE8540F443012003F
:1000DE007DD0E022438E08E58954F04401F5897500
:1000EE008CF0758A2CD2A922C28C758CF0758A2C54
:1000FE00D28CB2923275C80075CDBF75CC2843C96B
:10010E008075CBBF75CA28E4F530F531439B80D29C
:10011E00CA22C2CFC0E0C0D00530E5307002053132
:10012E000537E537B43205D201753700E531B40332
:10013E0063E530B4E85ED200E4F530F531E5322403
:10014E0001D4B4602A753200E5332401D4B4601BA7
:10015E00753300E5342401D4B41204B2028008B41D
:10016E001305753401802DF5348029F5338025F57E
:10017E0032300520E534B5361BE533B53516200291
:10018E0005300307800E2003028009209204D2045A
:10019E008002C204D0D0D0E03275817F75B1007577
:1001AE00B20075B30075B40075AD0075AD001200E8
:1001BE00E2120103D2AF120087C0E07401141200E4
:1001CE00C7D0E0C083C082C0E090049A1200BAD0BB
:1001DE00E0D082D083C0E07401141200C5D0E0C01C
:1001EE0083C082C0E09004A91200BAD0E0D082D0C1
:1001FE0083D200753255753359753405C202753583
:10020E0000753606C203D205C204C206300121C2F1
:10021E000112033E300419120414209613C0027A00
:10022E0032120038D0022096073096FDC204C28CDE
:10023E003000D9C200C0E07407141200C7D0E0C06D
:10024E0000A8341200CCD000C0E0740A141200C70B
:10025E00D0E0C000A8331200CCD000C0E0740D1462
:10026E001200C7D0E0C000A8321200CCD000C0E00F
:10027E00740F141200C7D0E0200214C083C082C0D5
:10028E00E09004B51200BAD0E0D082D0838012C0C4
:10029E0083C082C0E09004B71200BAD0E0D082D002
:1002AE0083C0E07407141200C5D0E0C000A8361257
:1002BE0000CCD000C0E0740A141200C5D0E0C0001B
:1002CE00A8351200CCD000C0E0740C141200C5D0BA
:1002DE00E0200314C083C082C0E09004B51200BABF
:1002EE00D0E0D082D0838012C083C082C0E0900460
:1002FE00B71200BAD0E0D082D083C0E0740E1412D0
:10030E0000C5D0E0200514C083C082C0E09004BDBB
:10031E001200BAD0E0D082D0838012C083C082C0D7
:10032E00E09004B91200BAD0E0D082D08302021A53
:10033E00209511C0027A32120038D0022095053075
:10034E0095FDB206208542C0027A32120038D002E4
:10035E002085363085FD200618E5342401D4B412EC
:10036E0004B2028008B41305753401801CF5348084
:10037E0018E5362401D4B41204B2028008B4130571
:10038E007536018004F536800020B04AC0027A32FC
:10039E00120038D00220B03E30B0FD200627E533E3
:1003AE002401D4B4601B753300E5342401D4B41297
:1003BE0004B2028008B413057534018019F5348037
:1003CE0015F5338011E5352401D4B460057535007B
:1003DE008004F5358000209718C0027A321200385A
:1003EE00D00220970C3097FD200604B2028002B294
:1003FE0003209611C0027A32120038D002209605E0
:10040E003096FDB20522D28CC0027A46120038D048
:10041E0002C28CC0027A46120038D002D28CC002C0
:10042E007A46120038D002C28CC0027A46120038C8
:10043E00D002D28CC0027A46120038D002C28CC0D2
:10044E00027A46120038D002D28CC0027A461200CE
:10045E0038D002C28CC0027A46120038D002D28C3A
:10046E00C0027A46120038D002C28CC0027A4612FE
:10047E000038D002D28CC0027A46120038D002C2A6
:10048E008CC0027A46120038D002C28C54696D6557
:10049E00202020203A20203A202000416C61726DED
:1004AE002020203A202000410050006F6E20006F67
:0304BE006666006F
:00000001FF
