:0300000002042DCA
:0100030032CA
:01000B0032C2
:0100130032BA
:01001B0032B2
:0100230032AA
:03002B000203C00D
:10002E00C000788500D8FDD00022C000C00179281C
:10003E007868D8FED9FADAF6D001D00022D294121E
:10004E00002EC29422A2E79283A2E69282A2E592A9
:10005E0081A2E4928012004B12002EA2E39283A2A0
:10006E00E29282A2E19281A2E0928012004B22D211
:10007E0093020053C293020053C294C0027A281214
:10008E000038D0027433120082743312008274323C
:10009E001200827428120082740C120082740112F3
:1000AE000082C0027A02120038D00222E493600667
:1000BE0012007DA380F62244404480020082C0E0FC
:1000CE00E8C4540F443012007DE8540F443012003F
:0400DE007DD0E022CF
:1000E200C0E0C0D0C000C001C002E4F538F539F567
:1000F2003AF53BF53C7A20E533A2E779047830E61D
:1001020033F608D9FA79057838E636D4F608D9F9FB
:10011200DAE5D002D001D000D0D0D0E022C0E0C0D9
:10012200D0C000C001C002E4F538F539F53AF53B1C
:10013200F53C7A20E533A2E779047830E633F60815
:10014200D9FA79057838C0D0E6243320E70224D0E2
:1001520020E30224FDD0D033F608D9EADAD6D00261
:10016200D001D000D0D0D0E022C0E0C0D0C000C0CA
:1001720001C0027A207905C3783CE613C0D030E78B
:100182000224D030E30224FDF618D0D0D9EC790451
:100192007833E613F618D9FADADBD002D001D000B0
:1001A200D0D0D0E022C0E0C0D0E5302534F530E533
:1001B200313535F531E5323536F532E5333537F55A
:1001C20033D0D0D0E022C0E0C0D0C3E5309534F5C2
:1001D20030E5319535F531E5329536F532E5339531
:1001E20037F533D0D0D0E022C0E0C0D0C3E530959F
:1001F20034E5319535E5329536E53395379200D0C1
:10020200D0D0E022C0E0C0D0C3E5349530E53595CA
:1002120031E5369532E53795339200D0D0D0E022E1
:10022200C0E0C0D0C200C3E53495307014E5359506
:1002320031700EE53695327008E53795337002D28B
:1002420000D0D0D0E02212022220000302020622B5
:100252001202222000030201EA22C0E0C0F0C0D054
:10026200C000C001C002C003E5308534F0A4F8A983
:10027200F0E5318534F0A429F9E435F0FAE530856A
:1002820035F0A429F9E5F03AFAE433FBE532853496
:10029200F0A42AFAE5F03BFBE5318535F0A42AFA11
:1002A200E5F03BFBE5308536F0A42AFAE5F03BFBAE
:1002B200E5338534F0A42BFBE5328535F0A42BFB26
:1002C200E5318536F0A42BFBE5308537F0A42BFB16
:1002D2008B338A3289318830D003D002D001D000EA
:1002E200D0D0D0F0D0E022C0E0C0D0C000C001C069
:1002F20002C003C0047C20E4F8F9FAFBC3E5303302
:10030200F530E53133F531E53233F532E53333F5A6
:1003120033E833F8E933F9EA33FAEB33FBC3E89510
:1003220034E99535EA9536EB95374013E89534F87C
:10033200E99535F9EA9536FAEB9537FB433001DC5E
:10034200BBD004D003D002D001D000D0D0D0E02264
:1003520075AC0075AD0075B30075B40075B100756C
:10036200B20079C87868D8FED9FA438E10438780E4
:1003720075985253C4DF53890F438920758DF7D284
:100382008EC28C438E085389F043890143B3825352
:10039200B47D53E8F043E80775F60043F68043E185
:1003A2000153B37F43B480C29722438E08E5C8E469
:1003B2004400F5C875CDF075CC2C439B8022C2CA8F
:1003C20075CDF075CC2CD2CAB29232C28CC28D7568
:1003D2008CBF758A28D28C308DFD221203CDDAFBB8
:1003E20022C000A83A1200CCD000C0E0742E120045
:1003F2007DD0E0C000A8391200CCD000223099FD97
:10040200C299F59922E49360061203FFA380F622B3
:10041200C2EFD2EE30EFFDE5C2540FF8E5C3C4C01F
:10042200E0540FF9D0E054F048F82275817F1203AE
:10043200521203AC120087753C00753B00753A00FE
:100442007539007538007545007546007547997510
:100452004899C201C202C0E07401141200C7D0E080
:10046200C083C082C0E090071D1200BAD0E0D082E3
:10047200D083C0E07405141200C5D0E0C083C082EE
:10048200C0E090072E1200BAD0E0D082D083C0E044
:100492007401141200C5D0E0C083C082C0E090078E
:1004A2004B1200BAD0E0D082D083C0E0740F141295
:1004B20000C5D0E0C083C082C0E090074E1200BAEF
:1004C200D0E0D082D083020575C0E074011412001E
:1004D200C7D0E0C083C082C0E09007371200BAD014
:1004E200E0D082D083C0E07401141200C5D0E0C015
:1004F20083C082C0E09007511200BAD0E0D082D00F
:100502008322C0E07401141200C7D0E0C083C0820D
:10051200C0E09007511200BAD0E0D082D083C0E090
:100522007401141200C5D0E0C083C082C0E09007FD
:10053200511200BAD0E0D082D083C0E0740114120C
:1005420000C7D0E0C083C082C0E09007621200BA48
:10055200D0E0D082D083C0E07401141200C5D0E094
:10056200C083C082C0E09007681200BAD0E0D08297
:10057200D083227B32753F00754000754100754281
:100582000075440075430053E8F043E80712041273
:100592002095127A321203DD20950A3095FDC202AF
:1005A200D2011204CB20961E7A321203DD20961657
:1005B2003096FD754500754600754799754899C294
:1005C20001D2021205048830893175320075330078
:1005D2007534207535CB75360075370012025C759F
:1005E20034FF75350F7536007537001202E9853F05
:1005F200348540358541368542371201A785303F23
:100602008531408532418533427A021203DDDB02B5
:100612008003020589853F3085403185413285421C
:10062200337534327535007536007537001202E9BC
:100632007534A475356A7536007537001201C875B0
:10064200346475350075360075370012025C12008D
:10065200E2C2D7E548A83A9820D71EE547A83998BC
:1006620020D716853947853A48300237C0E07406EC
:10067200141200C7D0E01203E3C2D7E546A83A98A5
:1006820030D7208008E545A8399830D716853945F6
:10069200853A4630020DC0E07406141200C5D0E05F
:1006A2001203E330010DC0E07401141200C5D0E062
:1006B2001203E3E53AC4540F44301203FFE53A54FF
:1006C2000F44301203FF742E1203FFE539C4540F96
:1006D20044301203FFE539540F44301203FF9007F0
:1006E20048120407C2D7E53A9430400512071A802F
:1006F20002C2970205757A46D2CA1203DDC2CA1235
:1007020003DDD2CA1203DDC2CAC0027A4612003821
:10071200D0021203DDC2CA22D2972220202020203A
:1007220020486F6D652020202020200030312D329E
:10073200382D32350054656D7020696E2043656C2A
:100742007369757320000D0A003C2D002D3E0020B8
:1007520020202020202020202020202020202000B7
:0C0762004D696E3A20004D61783A20008D
:00000001FF
